:100000000C9436000C945E000C945E000C945E0020
:100010000C945E000C945E000C945E000C945E00E8
:100020000C945E000C945E000C945E000C945E00D8
:100030000C945E000C945E000C945E000C945E00C8
:100040000C9471050C945E000C941D060C945E00DB
:100050000C945E000C945E000C945E000C945E00A8
:100060000C94B1020C945E00A801660711241FBE17
:10007000CFEFD8E0DEBFCDBF11E0A0E0B1E0E0EC13
:10008000F2E102C005900D92A631B107D9F711E057
:10009000A6E1B1E001C01D92A43EB107E1F710E076
:1000A000CCE6D0E004C02297FE010E945A09C8366F
:1000B000D107C9F70E946A050C945E090C940000F0
:1000C0000F931F93CF93DF93689F8001699F100D5B
:1000D000789F100D1124C8010E947C00EC0100974C
:1000E00029F060E070E0A8010E947E01CE01DF915E
:1000F000CF911F910F910895CF93DF93BC01823070
:10010000910510F462E070E0A091E201B091E3018A
:10011000ED01E0E0F0E040E050E021C0888199810D
:100120008617970769F48A819B81309719F093832A
:10013000828304C09093E3018093E201FE0134C006
:100140006817790738F44115510519F08417950798
:1001500008F4AC01FE018A819B819C01E901209792
:10016000E9F641155105A9F1CA01861B970B0497C1
:1001700008F4BA01E0E0F0E02AC08D919C9111975B
:1001800084179507F9F46417750781F412968D9119
:100190009C911397309719F09383828304C09093B6
:1001A000E3018093E201FD0132964CC0CA01861B37
:1001B000970BFD01E80FF91F6193719302978D93DF
:1001C0009C9340C0FD01828193819C01D9011097CD
:1001D000A1F68091E0019091E101892B41F4809199
:1001E0000801909109019093E1018093E001409111
:1001F0000A0150910B014115510541F44DB75EB70D
:100200008091060190910701481B590B2091E00154
:100210003091E101CA01821B930B8617970780F08A
:10022000AB014E5F5F4F8417950750F0420F531F8D
:100230005093E1014093E001F9016193719302C091
:10024000E0E0F0E0CF01DF91CF910895CF93DF930D
:10025000009709F450C0EC0122971B821A82A091EA
:10026000E201B091E301109709F140E050E0AC17D2
:10027000BD0708F1BB83AA83FE0121913191E20FF2
:10028000F31FAE17BF0779F48D919C911197280F3A
:10029000391F2E5F3F4F3983288312968D919C9191
:1002A00013979B838A834115510571F4D093E30121
:1002B000C093E20120C012968D919C911397AD01DD
:1002C000009711F0DC01D3CFFA01D383C2832191CF
:1002D0003191E20FF31FCE17DF0769F4888199810E
:1002E000280F391F2E5F3F4FFA01318320838A8107
:1002F0009B8193838283DF91CF910895DC0101C0BC
:100300006D9341505040E0F7089581E080931F01C4
:1003100060931A0110921D0110921E0108958091A0
:10032000190190911801891B0895909118018091ED
:100330001901981710F080E00895E0911601F091EE
:100340001701E90FF11D80819F5F909318010895B7
:100350000895DF93CF930F92CDB7DEB76983809175
:100360001F018823A9F080911E018032B0F4809192
:100370001D01E0911B01F0911C01E80FF11D60834C
:1003800080911D018F5F80931D0180931E0105C028
:10039000CE01019661E00E9494020F90CF91DF910F
:1003A00008950E94A901089560911B0170911C019C
:1003B00080911A0140911E0121E00E944F0210928B
:1003C0001D0110921E0110921F010895862F609149
:1003D000160170911701413208F040E20E941702A5
:1003E000109218018093190108950E94E601089562
:1003F00080E290E061E070E00E946000809316016E
:1004000090931701109218011092190180E290E068
:1004100061E070E00E94600080931B0190931C01DA
:1004200010921D0110921E010E9433040895982F0E
:10043000413210F040E031C0809121018823E1F782
:1004400081E0809321018FEF809332011092290186
:10045000415040932A014F5F990F91609093220180
:1004600085EE8093BC00809121018130E1F3809181
:100470002901841710F440912901A0912701B0911E
:10048000280120E030E007C0FB01E20FF31F8D914F
:1004900080832F5F3F4F2417B8F3842F08951F9355
:1004A000582F122F413210F081E03CC08091210181
:1004B0008823E1F782E0809321018FEF809332015E
:1004C0001092290140932A01A0912701B09128019F
:1004D000FB0102C081918D938E2F861B8417D0F370
:1004E000852F90E0880F991F8093220185EE8093DD
:1004F000BC00112321F0809121018230E1F3809131
:1005000032018F3F11F480E00DC0809132018032C2
:1005100011F482E007C080913201803311F084E051
:1005200001C083E01F910895482F613210F081E0EF
:10053000089580912101843011F082E00895609344
:100540002E01A0912B01B0912C01842F9C01F90167
:1005500002C081918D938E2F841B8617D0F380E08B
:1005600008951F920F920FB60F9211242F933F936D
:100570004F935F936F937F938F939F93AF93BF93AB
:10058000EF93FF938091B90090E0887F9070803660
:10059000910509F4E2C081369105CCF588329105C8
:1005A00009F47BC089329105B4F48031910509F4D6
:1005B0006FC0813191053CF4009709F438C1089768
:1005C00009F040C165C08831910509F466C0809783
:1005D00009F038C17FC08034910509F4A3C081348B
:1005E000910544F48033910509F47FC0C89709F060
:1005F00029C186C08035910509F486C088359105EA
:1006000009F495C08834910509F01CC19EC0883951
:10061000910509F404C189399105ECF488379105F5
:1006200009F49BC0893791054CF48836910509F48B
:1006300094C08037910509F005C18FC088389105B5
:1006400009F4EDC08039910509F48DC08038910519
:1006500009F0F8C088C0803B910509F4B2C0813B25
:1006600091054CF4803A910509F491C0883A9105BE
:1006700009F0E8C0A6C0803C910509F4D4C0883CCC
:10068000910509F4D0C0883B910509F0DBC0B1C0E9
:10069000809122018093BB00C0C09091290180917C
:1006A0002A01981778F490912901E0912701F0919F
:1006B0002801E90FF11D80818093BB009F5F90931B
:1006C0002901ABC085ED8093BC008091BC0084FD06
:1006D000FCCFB6C080E28093320185ED8093BC00F0
:1006E0008091BC0084FDFCCFABC080E380933201DD
:1006F00085ED8093BC008091BC0084FDFCCFA0C040
:1007000088E3809332018FC0809129019091BB00D2
:10071000E0912701F0912801E80FF11D90838F5F90
:10072000809329019091290180912A0174C08091C0
:1007300029019091BB00E0912701F0912801E80F79
:10074000F11D90838F5F8093290185ED8093BC001C
:100750008091BC0084FDFCCF73C083E080932101B5
:10076000109231015AC080913101803208F057C097
:10077000809131019091BB00E0912F01F091300107
:10078000E80FF11D90838F5F8093310146C0809107
:100790003101803248F480913101E0912F01F091D4
:1007A0003001E80FF11D108260913101E0912501C7
:1007B000F091260180912F019091300170E0099510
:1007C00032C084E08093210110922D0110922E01FD
:1007D000E0912301F0912401099580912E01882355
:1007E00041F481E080932E01E0912B01F0912C01E6
:1007F000108290912D01E0912B01F0912C01E90FD5
:10080000F11D80818093BB009F5F90932D0190919B
:100810002D0180912E01981710F485EC01C085E818
:100820008093BC000FC085EC8093BC0009C010927F
:10083000320185ED8093BC008091BC0084FDFCCF2B
:1008400010922101FF91EF91BF91AF919F918F91F4
:100850007F916F915F914F913F912F910F900FBEBC
:100860000F901F90189510922101449A459AE9EB38
:10087000F0E080818E7F808380818D7F808388E41B
:100880008093B80085E48093BC0080E290E061E052
:1008900070E00E946000809327019093280180E21D
:1008A00090E061E070E00E94600080932B019093E3
:1008B0002C0180E290E061E070E00E946000809393
:1008C0002F019093300108951F93CF93DF9380E21F
:1008D00091E062E570E046E050E00E94F501CAE375
:1008E000D1E017E107C080E291E00E9495018127E5
:1008F000895E899380E291E00E948F01882399F7B5
:1009000080E291E062E570E00E94850180E291E082
:1009100060E070E00E94D10180E291E00E94D40189
:1009200040913C014093330180913D01809334011B
:1009300080913E018093350120913F0130E0E1E05C
:10094000F0E0C9018E279F2781708093360136958C
:1009500027952E273F2721702093370180913A0158
:100960008093380180913B018093390150E060E031
:1009700070E08DEC91E02AE030E00E94C0088DEC40
:1009800091E060E071E00E94D7074091340150E0AF
:1009900060E070E08DEC91E02AE030E00E94C00859
:1009A0008DEC91E060E071E00E94D7074091350145
:1009B00050E060E070E08DEC91E02AE030E00E94D1
:1009C000C0088DEC91E060E071E00E94D707409193
:1009D000380150E060E070E08DEC91E02AE030E01A
:1009E0000E94C0088DEC91E060E071E00E94D707A2
:1009F0004091390150E060E070E08DEC91E02AE038
:100A000030E00E94C0088DEC91E060E071E00E944F
:100A1000D7074091360150E060E070E08DEC91E046
:100A20002AE030E00E94C0088DEC91E060E071E0C7
:100A30000E94D7074091370150E060E070E08DECF4
:100A400091E02AE030E00E94C0088DEC91E060E087
:100A500071E00E94D7078DEC91E062E071E00E94A6
:100A6000F60762E370E080E090E00E94B905DF9154
:100A7000CF911F9108950F931F938DEC91E040E863
:100A800055E260E070E00E945A0687B18C6087B939
:100A90004298439A64E670E080E090E00E94B905D5
:100AA00000E211E0C8010E94F801C80162E570E0AF
:100AB0000E948501C80160E470E00E94D101C80174
:100AC00060E070E00E94D101C8010E94D4011F9132
:100AD0000F9108950E94E3050E943B050E94640463
:100AE000FDCF1F920F920FB60F9211242F933F93B9
:100AF0008F939F93AF93BF93809144019091450151
:100B0000A0914601B0914701309148010196A11D85
:100B1000B11D232F2D5F2D3720F02D570196A11DDC
:100B2000B11D209348018093440190934501A09307
:100B30004601B09347018091400190914101A091FD
:100B40004201B09143010196A11DB11D8093400166
:100B500090934101A0934201B0934301BF91AF91A3
:100B60009F918F913F912F910F900FBE0F901F90EB
:100B70001895EF92FF920F931F937B018C018FB713
:100B8000F894409144015091450160914601709163
:100B900047018FBF2FB7F894809144019091450190
:100BA000A0914601B09147012FBF841B950BA60B66
:100BB000B70BE816F9060A071B0760F71F910F919C
:100BC000FF90EF900895789484B5826084BD84B5D9
:100BD000816084BD85B5826085BD85B5816085BD38
:100BE000EEE6F0E0808181608083E1E8F0E08081E2
:100BF00082608083808181608083E0E8F0E0808192
:100C000081608083E1EBF0E0808184608083E0EBB1
:100C1000F0E0808181608083EAE7F0E08081846099
:100C200080838081826080838081816080838081F5
:100C3000806880831092C10008951F920F920FB6B2
:100C40000F9211242F933F934F935F936F937F9352
:100C50008F939F93AF93BF93EF93FF934091C60001
:100C6000E091C901F091CA01CF01019660E870E0FE
:100C70000E94F4089C018091CB019091CC0128172F
:100C8000390739F0E75BFE4F40833093CA01209368
:100C9000C901FF91EF91BF91AF919F918F917F918A
:100CA0006F915F914F913F912F910F900FBE0F90D9
:100CB0001F9018955F926F927F928F929F92AF9242
:100CC000BF92CF92DF92EF92FF920F931F93CF9339
:100CD000DF93EC013A014B01413482E458078FE085
:100CE000680780E078070CF07FC060E874E88EE168
:100CF00090E0A40193010E94290921503040404016
:100D00005040CA01B90122E030E040E050E00E94CA
:100D1000290959016A01A601950120953095409550
:100D2000509594E0220F331F441F551F9A95D1F719
:100D300060E074E284EF90E00E942909CA01B901E1
:100D40002FEF30E040E050E00E94D508A40193016D
:100D50000E942909C90181509F4F181619061CF4D9
:100D6000522E5A9403C055245394521A60E079E0ED
:100D70008DE390E0A40193010E94290921503040A5
:100D800040405040CA01B90122E030E040E050E06C
:100D90000E942909209530954095509583E0220FB7
:100DA000331F441F551F8A95D1F760E074E284EF2A
:100DB00090E00E942909CA01B9012FEF30E040E01C
:100DC00050E00E94D508A40193010E942909C9019D
:100DD00081509F4F181619061CF4822F815002C0B3
:100DE00081E0821B851500F5E885F98581E090E0BA
:100DF0000A8802C0880F991F0A94E2F7808360E096
:100E000079E08DE390E0A40193010E94290921502B
:100E1000304040405040CA01B90122E030E040E09B
:100E200050E00E94290904C0E885F98510829501E7
:100E3000EC81FD813083EE81FF812083EA85FB8593
:100E4000208141E050E0CA010E8402C0880F991F42
:100E50000A94E2F7282B2083EA85FB852081CA01CA
:100E60000F8402C0880F991F0A94E2F7282B208371
:100E7000EA85FB858081088802C0440F551F0A94CB
:100E8000E2F7842B8083DF91CF911F910F91FF9028
:100E9000EF90DF90CF90BF90AF909F908F907F901A
:100EA0006F905F900895FC01A085B18521898C9198
:100EB00090E0022E02C0959587950A94E2F780FF94
:100EC000F6CF0484F585E02D6083089580E191E0FC
:100ED0009093CE018093CD0189E491E09093D0016D
:100EE0008093CF0185EC90E09093D2018093D10163
:100EF00084EC90E09093D4018093D30180EC90E057
:100F00009093D6018093D50181EC90E09093D80125
:100F10008093D70186EC90E09093DA018093D90119
:100F200084E08093DB0183E08093DC0187E08093A1
:100F3000DD0185E08093DE0181E08093DF0108958B
:100F40000F931F93CF93DF938C01EB0109C0219680
:100F5000D801ED91FC910190F081E02DC801099537
:100F600068816623A1F7DF91CF911F910F910895BA
:100F7000EF92FF920F931F93CF93DF938C017B012E
:100F8000EA010CC0D7016D917D01D801ED91FC9172
:100F90000190F081E02DC80109952197209791F7E4
:100FA000DF91CF911F910F91FF90EF900895DC0199
:100FB000ED91FC910280F381E02D099508950F9346
:100FC0001F938C01DC01ED91FC910190F081E02DEB
:100FD0006DE00995D801ED91FC910190F081E02D33
:100FE000C8016AE009951F910F9108950F931F930F
:100FF0008C010E94D707C8010E94DF071F910F9143
:1010000008952F923F924F925F926F927F928F92AC
:101010009F92AF92BF92CF92DF92EF92FF920F9387
:101020001F93DF93CF93CDB7DEB7A0970FB6F89499
:10103000DEBF0FBECDBF1C016A017B01411551050A
:101040006105710549F4DC01ED91FC910190F0819D
:10105000E02D60E3099554C0882499245401422E60
:1010600055246624772401E010E00C0F1D1F080DA5
:10107000191DC701B601A30192010E940709F801D9
:1010800060830894811C911CA11CB11CC701B6018E
:10109000A30192010E940709C901DA016C017D01D7
:1010A000C114D104E104F104F1F681E0E82EF12C41
:1010B000EC0EFD1EE80CF91C3E010894611C711C2D
:1010C000D501C4010197A109B1096C01C818D9085B
:1010D00014C0F601EE0DFF1D60816A3010F4605DF2
:1010E00001C0695CD101ED91FC910190F081E02D8E
:1010F000C10109950894E108F1086E147F0449F7CD
:10110000A0960FB6F894DEBF0FBECDBFCF91DF9192
:101110001F910F91FF90EF90DF90CF90BF90AF9015
:101120009F908F907F906F905F904F903F902F9007
:101130000895EF92FF920F931F93CF93DF93EC01EB
:101140007A018B0177FF0FC0E881F9810190F0816E
:10115000E02D6DE2099510950095F094E094E11C66
:10116000F11C011D111DCE01B801A7012AE00E944A
:101170000108DF91CF911F910F91FF90EF9008959B
:10118000DC012115310541F4ED91FC910190F081D4
:10119000E02D642F099508952A30310519F40E9435
:1011A000990808950E9401080895629FD001739FD5
:1011B000F001829FE00DF11D649FE00DF11D929FF3
:1011C000F00D839FF00D749FF00D659FF00D992732
:1011D000729FB00DE11DF91F639FB00DE11DF91F56
:1011E000BD01CF011124089597FB092E07260AD0CF
:1011F00077FD04D049D006D000201AF4709561958F
:101200007F4F0895F6F7909581959F4F0895A1E23D
:101210001A2EAA1BBB1BFD010DC0AA1FBB1FEE1F70
:10122000FF1FA217B307E407F50720F0A21BB30BBB
:10123000E40BF50B661F771F881F991F1A9469F737
:1012400060957095809590959B01AC01BD01CF0193
:10125000089597FB092E05260ED057FD04D0D7DF41
:101260000AD0001C38F450954095309521953F4F99
:101270004F4F5F4F0895F6F7909580957095619563
:101280007F4F8F4F9F4F0895AA1BBB1B51E107C093
:10129000AA1FBB1FA617B70710F0A61BB70B881F06
:1012A000991F5A95A9F780959095BC01CD01089595
:1012B000EE0FFF1F0590F491E02D0994F894FFCFF5
:1012C0002C00656F6C002000E401000000000000AD
:0612D0005307A007B80758
:00000001FF
