:100000000C945E000C9486000C9486000C94860080
:100010000C9486000C9486000C9486000C94860048
:100020000C9486000C9486000C9486000C94C400FA
:100030000C9486000C9486000C9486000C94860028
:100040000C94B8020C9486000C9465050C949705EA
:100050000C9486000C9486000C9486000C94860008
:100060000C9486000C948600000000080002010039
:100070000003040700000000000000000102040863
:100080001020408001020408102001020408102002
:10009000040404040404040402020202020203032E
:1000A0000303030300000000250028002B000000CC
:1000B0000000240027002A009700C70511241FBE56
:1000C000CFEFD8E0DEBFCDBF11E0A0E0B1E0E2E7C6
:1000D000FFE002C005900D92A432B107D9F721E0EC
:1000E000A4E2B1E001C01D92A33FB207E1F710E026
:1000F000CCEBD0E004C02297FE010E94A407C83BCD
:10010000D107C9F70E940B060C94B7070C940000A6
:1001100026E040E855E260E070E086E591E00E946C
:10012000030563E070E084E291E00C941A0284E23B
:1001300091E00C948001CF93DF9386E591E00E94DB
:10014000200418161906C4F486E591E00E943904CB
:10015000EC01BC01772784E291E00E94530264E045
:1001600071E086E591E00E9458064AE050E06C2F6D
:1001700086E591E00E94DB0664E670E080E090E0B6
:10018000DF91CF910C9425031F920F920FB60F921F
:1001900011242F933F934F935F936F937F938F938C
:1001A0009F93AF93BF93EF93FF938091280187FFB5
:1001B00005C010928500109284001AC02091280179
:1001C000332727FD30958091270190E028173907C4
:1001D0007CF480912801992787FD9095FC01EE0F12
:1001E000FF1FE80FF91FE75DFE4F808186FD15C0F8
:1001F000809128018F5F8093280120912801332767
:1002000027FD30958091270190E028173907BCF42D
:10021000809128018C305CF112C0809128019927CF
:1002200087FD9095FC01EE0FFF1FE80FF91FE75DBA
:10023000FE4F808160E08F730E94EA03D9CF8091E6
:10024000840090918500049680349C4918F480E4E1
:100250009CE905C08091840090918500049690935C
:100260008900809388008FEF8093280138C0209107
:1002700084003091850080912801992787FD909511
:10028000FC01EE0FFF1FE80FF91FE75DFE4F8181B4
:100290009281820F931F90938900809388008091B0
:1002A0002801992787FD9095FC01EE0FFF1FE80FAD
:1002B000F91FE75DFE4F808186FF11C08091280104
:1002C000992787FD9095FC01EE0FFF1FE80FF91F9E
:1002D000E75DFE4F808161E08F730E94EA03FF912A
:1002E000EF91BF91AF919F918F917F916F915F91AE
:1002F0004F913F912F910F900FBE0F901F90189527
:10030000209127012C30A0F431E0320F30932701E7
:10031000FC012083822F90E0FC01EE0FFF1FE80F0D
:10032000F91FE75DFE4F88EB9BE092838183089580
:100330002FEFFC0120830895DF92EF92FF920F933D
:100340001F93CF93DF93EC01D62E7A018901888128
:100350008C3008F066C061E08D2D0E94B103888169
:10036000A82FB0E0FD01EE0FFF1FEA0FFB1FE75DB6
:10037000FE4F2D2D2F739081907C922B908360E205
:1003800072E06E197F0977FF02C06D5F7F4F759530
:10039000679575956795698340E659E0401B510B59
:1003A00057FF02C04D5F5F4F55954795559547954F
:1003B0004A836CE00E944A079CE0899FB0011124A7
:1003C00020E030E0A901460F571FFA01EE0FFF1F92
:1003D000E40FF51FE75DFE4F908196FD16C02F5F7D
:1003E0003F4F2C30310571F781110FC01092800002
:1003F00082E0809381001092850010928400B19A6F
:1004000080916F00826080936F00888190E0FC0192
:10041000EE0FFF1FE80FF91FE75DFE4F808180643C
:1004200080838881DF91CF911F910F91FF90EF9092
:10043000DF90089520E639E040E252E00C949C0100
:10044000FC0180818C3070F5918128E830E0291B17
:10045000310997FD3395220F331F220F331F621787
:1004600073077CF0928128E532E0291B310997FD62
:100470003395220F331F220F331F621773070CF4BB
:100480009B0122503109220F331F4FB7F89490E09F
:10049000FC01EE0FFF1FE80FF91FE75DFE4F3283EF
:1004A00021834FBF08954F925F926F927F92AF92D8
:1004B000BF92CF92DF92EF92FF920F931F93CF9351
:1004C000DF93EC01603282E078070CF040C077FDEA
:1004D00006C0653B71052CF064EB70E002C060E083
:1004E00070E0898128E830E0281B310987FD3395C9
:1004F000220F331F220F331F5901CC24B7FCC094A5
:10050000DC2C882777FD8095982F2A8148E552E0DA
:10051000421B510927FD5395440F551F440F551F8A
:100520002A01662457FC6094762C7F926F925F922A
:100530004F9214EBE12EF12C00E010E020E030E0CF
:10054000A9010E94F2060F900F900F900F90CE011C
:10055000DF91CF911F910F91FF90EF90DF90CF909F
:10056000BF90AF907F906F905F904F900C9420025F
:100570001F920F920FB60F9211242F933F938F93D8
:100580009F93AF93BF9380914E0190914F01A091A3
:100590005001B091510130914D0123E0230F2D37CF
:1005A00020F40196A11DB11D05C026E8230F029677
:1005B000A11DB11D20934D0180934E0190934F01D9
:1005C000A0935001B0935101809152019091530139
:1005D000A0915401B09155010196A11DB11D8093C8
:1005E000520190935301A0935401B0935501BF91D0
:1005F000AF919F918F913F912F910F900FBE0F90D0
:100600001F9018953FB7F894809152019091530133
:10061000A0915401B091550126B5A89B05C02F3F6C
:1006200019F00196A11DB11D3FBF6627782F892FB4
:100630009A2F620F711D811D911D42E0660F771F79
:10064000881F991F4A95D1F70895CF92DF92EF92B4
:10065000FF92CF93DF936B017C010E940203EB01B9
:10066000C114D104E104F10489F00E9439070E9409
:1006700002036C1B7D0B683E734090F381E0C81A47
:10068000D108E108F108C851DC4FEACFDF91CF91E2
:10069000FF90EF90DF90CF900895789484B58260BA
:1006A00084BD84B5816084BD85B5826085BD85B516
:1006B000816085BDEEE6F0E0808181608083E1E8C5
:1006C000F0E01082808182608083808181608083FD
:1006D000E0E8F0E0808181608083E1EBF0E0808100
:1006E00084608083E0EBF0E0808181608083EAE7D2
:1006F000F0E080818460808380818260808380815B
:10070000816080838081806880831092C100089519
:10071000833081F028F4813099F08230A1F008957F
:100720008730A9F08830B9F08430D1F4809180000E
:100730008F7D03C0809180008F7780938000089523
:1007400084B58F7702C084B58F7D84BD0895809174
:10075000B0008F7703C08091B0008F7D8093B00090
:100760000895CF93DF9390E0FC01E458FF4F24916C
:10077000FC01E057FF4F8491882349F190E0880FF6
:10078000991FFC01E255FF4FA591B4918C559F4FE5
:10079000FC01C591D4919FB7611108C0F8948C9168
:1007A000209582238C93888182230AC0623051F481
:1007B000F8948C91322F309583238C938881822BEF
:1007C000888304C0F8948C91822B8C939FBFDF9117
:1007D000CF9108950F931F93CF93DF931F92CDB7BF
:1007E000DEB7282F30E0F901E859FF4F8491F90175
:1007F000E458FF4F1491F901E057FF4F0491002393
:10080000C9F0882321F069830E9488036981E02F61
:10081000F0E0EE0FFF1FEC55FF4FA591B4919FB78D
:10082000F8948C91611103C01095812301C0812B34
:100830008C939FBF0F90DF91CF911F910F910895DF
:10084000FC01818D228D90E0805C9F4F821B91097D
:100850008F7399270895FC01918D828D981731F03F
:10086000828DE80FF11D858D90E008958FEF9FEF49
:100870000895FC01918D828D981761F0828DDF01C2
:10088000A80FB11D5D968C91928D9F5F9F73928F83
:1008900090E008958FEF9FEF08958DEB95E0892B01
:1008A00049F080E090E0892B29F00E94BD0581117C
:1008B0000C9400000895FC01848DDF01A80FB11D88
:1008C000A35ABF4F2C91848D90E001968F73992786
:1008D000848FA689B7892C93A089B1898C91806473
:1008E0008C93938D848D981306C00288F389E02D34
:1008F00080818F7D80830895CF93DF93EC01888D75
:100900008823C9F0EA89FB89808185FD05C0A88913
:10091000B9898C9186FD0FC00FB607FCF5CF808199
:1009200085FFF2CFA889B9898C9185FFEDCFCE01E3
:100930000E945B04E7CFDF91CF910895CF92DF92C1
:10094000FF920F931F93CF93DF931F92CDB7DEB724
:100950006C01DC015B969C915B975C968C915C973B
:10096000981307C05096ED91FC915197808185FDB9
:1009700032C0F601038D10E00F5F1F4F0F73112778
:10098000F02EF601848DF81211C00FB607FCF9CFD6
:10099000D6015096ED91FC915197808185FFF1CF62
:1009A000C60169830E945B046981EBCF838DE80FE8
:1009B000F11DE35AFF4F6083D6015B960C935B9762
:1009C0005296ED91FC91539780818062808381E003
:1009D00058968C930DC0D6015696ED91FC91579781
:1009E00060835096ED91FC91519780818064808363
:1009F00081E090E00F90DF91CF911F910F91FF90D8
:100A0000DF90CF900895BF92CF92DF92EF92FF9246
:100A1000CF93DF93EC016A017B01B22EE889F9895B
:100A200082E08083411581EE580761057105A1F0D0
:100A300060E079E08DE390E0A70196010E945607FF
:100A40002150310941095109569547953795279508
:100A5000211580E1380798F0E889F989108260E86B
:100A600074E88EE190E0A70196010E94560721509C
:100A70003109410951095695479537952795EC85D8
:100A8000FD853083EE85FF852083188EEC89FD89F6
:100A9000B082EA89FB89808180618083EA89FB8951
:100AA000808188608083EA89FB8980818068808377
:100AB000EA89FB8980818F7D8083DF91CF91FF90D0
:100AC000EF90DF90CF90BF9008951F920F920FB6D6
:100AD0000F9211242F938F939F93EF93FF93E091A5
:100AE0006601F09167018081E0916C01F0916D01E8
:100AF00082FD12C0908180916F018F5F8F73209172
:100B00007001821751F0E0916F01F0E0EA5AFE4F58
:100B1000958F80936F0101C08081FF91EF919F912C
:100B20008F912F910F900FBE0F901F9018951F92CD
:100B30000F920FB60F9211242F933F934F935F9311
:100B40006F937F938F939F93AF93BF93EF93FF9395
:100B500086E591E00E945B04FF91EF91BF91AF9118
:100B60009F918F917F916F915F914F913F912F91C5
:100B70000F900FBE0F901F90189586E591E00E9490
:100B8000200421E0892B09F420E0822F089510929F
:100B900059011092580188EE93E0A0E0B0E08093F4
:100BA0005A0190935B01A0935C01B0935D0187E1D2
:100BB00091E0909357018093560185EC90E09093DB
:100BC00063018093620184EC90E0909365018093CF
:100BD000640180EC90E0909367018093660181EC62
:100BE00090E0909369018093680182EC90E090938B
:100BF0006B0180936A0186EC90E090936D01809385
:100C00006C0110926F01109270011092710110929C
:100C10007201089508950E944D030E940A060E94E1
:100C20008800CDE4D4E00E949B002097E1F30E946D
:100C30004D04F9CFCF92DF92EF92FF920F931F9363
:100C4000CF93DF936C017A01EB01E60EF71E00E013
:100C500010E0CE15DF0561F06991D601ED91FC91B0
:100C60000190F081E02DC6010995080F191FF1CF01
:100C7000C801DF91CF911F910F91FF90EF90DF900E
:100C8000CF9008956115710581F0DB010D90002072
:100C9000E9F7AD0141505109461B570BDC01ED91BD
:100CA000FC910280F381E02D099480E090E00895AA
:100CB0000C944206DC01ED91FC910190F081E02D55
:100CC00009940F931F93CF93DF93EC016DE00E9483
:100CD0005A068C016AE0CE010E945A06800F911FCD
:100CE000DF91CF911F910F9108958F929F92AF92B4
:100CF000BF92CF92DF92EF92FF920F931F93CF9309
:100D0000DF93CDB7DEB7A1970FB6F894DEBF0FBE65
:100D1000CDBF7C01C42EE52FCB01D22E19A221E03C
:100D20002D1510F02AE0D22E8E010F5D1F4F8D2C55
:100D3000912CA12CB12C6C2D7E2FA50194010E9429
:100D400056078C2DD29E80191124015011098A302A
:100D500014F4805D01C0895CF801808321153105A0
:100D60004105510521F0C22EE32FCA01E4CFB8019D
:100D7000C7010E944206A1960FB6F894DEBF0FBECF
:100D8000CDBFDF91CF911F910F91FF90EF90DF903A
:100D9000CF90BF90AF909F908F900895211531050F
:100DA00041F4DC01ED91FC910190F081E02D642F84
:100DB00009940C9475060F931F93CF93DF93EC0166
:100DC0009A01462F50E060E070E00E94CE068C0150
:100DD000CE010E946106800F911FDF91CF911F917C
:100DE0000F9108954F925F926F927F92AF92BF9250
:100DF000CF92DF92EF92FF920F931F93CF93DF93E7
:100E0000CDB7DEB729013A01621B730B840B950B3A
:100E100029893A894B895C892A193B094C095D0962
:100E2000298B3A8B4B8B5C8B9B01AC0169897A894E
:100E30008B899C890E943A07E418F508060917096E
:100E4000A80197010E9478072A0D3B1D4C1D5D1DCE
:100E5000CA01B901DF91CF911F910F91FF90EF90DF
:100E6000DF90CF90BF90AF907F906F905F904F904A
:100E700008950895DB018F939F930E949707BF9178
:100E8000AF91A29F800D911DA39F900DB29F900DD9
:100E900011240895991B79E004C0991F961708F052
:100EA000961B881F7A95C9F780950895A1E21A2E9E
:100EB000AA1BBB1BFD010DC0AA1FBB1FEE1FFF1FFE
:100EC000A217B307E407F50720F0A21BB30BE40B4E
:100ED000F50B661F771F881F991F1A9469F7609595
:100EE0007095809590959B01AC01BD01CF0108954F
:100EF000052E97FB1EF400940E948F0757FD07D024
:100F00000E94560707FC03D04EF40C948F075095AF
:100F10004095309521953F4F4F4F5F4F08959095E5
:100F20008095709561957F4F8F4F9F4F08950E94D8
:100F3000A807A59F900DB49F900DA49F800D911DB3
:100F400011240895EE0FFF1F0590F491E02D0994F0
:100F5000A29FB001B39FC001A39F700D811D1124FA
:100F6000911DB29F700D811D1124911D0895F8945B
:020F7000FFCFB1
:100F7200010000004461746F2072656369626964F4
:100F82006F3A00000000009E041A06200439042B68
:040F9200047C0400D7
:00000001FF
