:100000000C94BF050C94E7050C94E7050C94E705E8
:100010000C94E7050C94E7050C94E7050C94E705B0
:100020000C94E7050C94E7050C94E7050C94E705A0
:100030000C94E7050C94E7050C94E7050C94E70590
:100040000C9481270C94E7050C943B2A0C946D2AA0
:100050000C94E7050C94E7050C94E7050C94E70570
:100060000C94E7050C94E705446F6E652100526F10
:10007000756E646564207265637473202866696CAC
:100080006C65642920202000526F756E64656420C1
:10009000726563747320286F75746C696E652920AE
:1000A0002000547269616E676C6573202866696C04
:1000B0006C65642920202020202020005472696172
:1000C0006E676C657320286F75746C696E65292086
:1000D000202020202000436972636C657320286F04
:1000E00075746C696E652920202020202020200056
:1000F000436972636C6573202866696C6C6564295A
:100100002020202020202020200052656374616E72
:10011000676C6573202866696C6C656429202020F3
:100120002020200052656374616E676C657320281F
:100130006F75746C696E6529202020202000486F3F
:1001400072697A2F56657274204C696E657320202F
:1001500020202020202020004C696E657320202064
:10016000202020202020202020202020202020208F
:10017000200054657874202020202020202020207A
:100180002020202020202020202020005363726582
:10019000656E2066696C6C202020202020202020A5
:1001A00020202020200042656E63686D61726B2004
:1001B000202020202020202020202020202020540B
:1001C000696D6520286D6963726F7365636F6E6416
:1001D0007329006D617463686573207468652074A9
:1001E00075746F7269616C2E00416C736F20696663
:1001F000207573696E672074686520627265616B33
:100200006F75742C20646F75626C652D636865630F
:100210006B207468617420616C6C20776972696E00
:1002200067004966207573696E672074686520628F
:100230007265616B6F757420626F6172642C2069E6
:10024000742073686F756C64204E4F542062652073
:1002500023646566696E6564210073686F756C64FC
:100260002061707065617220696E20746865206C11
:1002700069627261727920686561646572202841E3
:10028000646166727569745F5446542E68292E0045
:10029000202023646566696E65205553455F41449F
:1002A0004146525549545F534849454C445F504973
:1002B0004E4F5554004966207573696E6720746807
:1002C0006520416461667275697420322E3822207F
:1002D0005446542041726475696E6F207368696575
:1002E0006C642C20746865206C696E653A00556EEC
:1002F0006B6E6F776E204C43442064726976657232
:1003000020636869703A2000466F756E642053362A
:100310004430313534204C43442064726976657230
:1003200000466F756E642048583833353744204C8A
:1003300043442064726976657200466F756E64206E
:10034000494C4939333431204C4344206472697636
:10035000657200466F756E642048583833343747ED
:10036000204C43442064726976657200466F756E56
:100370006420494C4939333238204C43442064725C
:100380006976657200466F756E6420494C49393351
:100390003237204C43442064726976657200466FA0
:1003A000756E6420494C4939333335204C43442021
:1003B00064726976657200466F756E6420494C49B7
:1003C00039333235204C43442064726976657200BB
:1003D0005573696E67204164616672756974203275
:1003E0002E38222054465420427265616B6F75741A
:1003F00020426F6172642050696E6F7574005446BC
:1004000054204C43442074657374000000000000C5
:100410003E5B4F5B3E3E6B4F6B3E1C3E7C3E1C1872
:100420003C7E3C181C577D571C1C5E7F5E1C0018D0
:100430003C1800FFE7C3E7FF0018241800FFE7DBC4
:10044000E7FF30483A060E2629792926407F050520
:1004500007407F05253F5A3CE73C5A7F3E1C1C085D
:10046000081C1C3E7F14227F22145F5F005F5F0622
:10047000097F017F006689956A606060606094A270
:10048000FFA29408047E040810207E201008082A89
:100490001C08081C2A08081E101010100C1E0C1E28
:1004A0000C30383E3830060E3E0E060000000000CC
:1004B00000005F00000007000700147F147F142471
:1004C0002A7F2A12231308646236495620500008F6
:1004D000070300001C2241000041221C002A1C7F4F
:1004E0001C2A08083E080800807030000808080828
:1004F00008000060600020100804023E5149453E9B
:1005000000427F400072494949462141494D331814
:1005100014127F1027454545393C4A49493141214C
:100520001109073649494936464949291E00001430
:100530000000004034000000081422411414141478
:1005400014004122140802015909063E415D594E2A
:100550007C1211127C7F494949363E414141227F3C
:100560004141413E7F494949417F090909013E41D5
:100570004151737F0808087F00417F4100204041BE
:100580003F017F081422417F404040407F021C020F
:100590007F7F0408107F3E4141413E7F09090906E3
:1005A0003E4151215E7F09192946264949493203B6
:1005B000017F01033F4040403F1F2040201F3F403C
:1005C00038403F63140814630304780403615949F5
:1005D0004D43007F41414102040810200041414148
:1005E0007F0402010204404040404000030708002D
:1005F00020545478407F28444438384444442838B0
:100600004444287F385454541800087E090218A422
:10061000A49C787F0804047800447D40002040407A
:100620003D007F1028440000417F40007C04780496
:10063000787C080404783844444438FC182424188E
:1006400018242418FC7C0804040848545454240436
:10065000043F44243C4040207C1C2040201C3C4063
:1006600030403C44281028444C9090907C44645482
:100670004C44000836410000007700000041360875
:100680000002010204023C2623263C1EA1A16112A5
:100690003A4040207A3854545559215555794122D1
:1006A00054547842215554784020545579400C1EBA
:1006B0005272123955555559395454545939555463
:1006C00054580000457C410002457D420001457CB4
:1006D000407D1211127DF0282528F07C54554500EC
:1006E0002054547C547C0A097F4932494949323AA2
:1006F0004444443A324A4848303A4141217A3A42E5
:10070000402078009DA0A07D3D4242423D3D4040BA
:10071000403D3C24FF2424487E4943662B2FFC2F78
:100720002BFF0929F620C0887E0903205454794103
:100730000000447D413048484A32384040227A0027
:100740007A0A0A727D0D19317D2629292F2826293A
:1007500029292630484D402038080808080808088C
:1007600008382F10C8ACBA2F102834FA00007B00CC
:100770000008142A142222142A1408AA005500AAD8
:10078000AA55AA55AA000000FF00101010FF00147F
:100790001414FF001010FF00FF1010F010F01414DC
:1007A00014FC001414F700FF0000FF00FF1414F401
:1007B00004FC141417101F10101F101F1414141F02
:1007C00000101010F0000000001F101010101F107B
:1007D000101010F010000000FF101010101010107A
:1007E0001010FF10000000FF140000FF00FF0000C9
:1007F0001F10170000FC04F414141710171414F43D
:1008000004F40000FF00F714141414141414F70077
:10081000F7141414171410101F101F141414F414C8
:100820001010F010F000001F101F0000001F140037
:100830000000FC140000F010F01010FF10FF141462
:1008400014FF141010101F00000000F010FFFFFF35
:10085000FFFFF0F0F0F0F0FFFFFF0000000000FFEE
:10086000FF0F0F0F0F0F3844443844FC4A4A4A34F4
:100870007E02020606027E027E026355494163380B
:1008800044443C04407E201E2006027E020299A5BC
:10089000E7A5991C2A492A1C4C7201724C304A4D1A
:1008A0004D303048784830BC625A463D3E4949494F
:1008B000007E0101017E2A2A2A2A2A44445F4444F8
:1008C00040514A444040444A51400000FF0103E087
:1008D00080FF000008086B6B083612362436060FBE
:1008E000090F06000018180000001010003040FF2B
:1008F0000101001F01011E00191D1712003C3C3CA4
:100900003C00000000000100E901201100FF64D15B
:1009100003007119D0030701083601483A0105C1E7
:100920000410100202C006003100000102C50104DB
:10093000D2020144C80F0467350408062401374079
:1009400003100880002A04000000EF2B05000001BE
:100950003F8F29002C000100CB05392C003402CF39
:100960000300C130E803850078EA020000ED04646A
:10097000031281F70120C00123C10110C5023E28E6
:10098000C701863601483A0155B1020018B603087E
:100990008227F20100260101E00F0F312B0C0E0817
:1009A0004EF1370710030E0900E10F000E1403117A
:1009B0000731C148080F0C31360F1100FF9629008E
:1009C0002C0000000100FF003200010000010200C5
:1009D00000070300301004000000080002020900B4
:1009E00000000A0000000C0000000D0000000F00D5
:1009F00000001000000011000700120000001300AA
:100A00000000FF00C8001000901611002702FF0030
:100A1000320012001A00FF003200130000182900F3
:100A20002A00FF00320030000000310000003200D8
:100A300000003500060236000808370007003800BD
:100A40000102390000003C0000003D0000002000D1
:100A5000000021000000500000005100EF00520093
:100A6000000053003F01600000A7610003006A001E
:100A70000000900010009200000093000300950019
:100A800000119700000098000000070033010100EA
:100A9000B903FF8357FFFAB30400000606B6012529
:100AA000B00168CC0105B10600151C1C83AAC00664
:100AB0005050013C1E08B4070240002A2A0D783A23
:100AC00001553601C0350100440200021100FF96B5
:100AD0002900FF322E89298F2B02E200E401E51064
:100AE000E601E710E870F200EA00EB20EC3CEDC80C
:100AF000E938F1011B1A1A022461255C1836190124
:100B00001F88FF051F80FF051F90FF051FD4FF05ED
:100B1000170536092838FF28283C02000300040086
:100B200005EF060007000801093F00000008000269
:100B300001000003040700000000000000000102A3
:100B4000040810204080010204081020010204085B
:100B50001020040404040404040402020202020239
:100B600003030303030300000000250028002B00FB
:100B700000000000240027002A0053069D2A1124AB
:100B80001FBECFEFD8E0DEBFCDBF12E0A0E0B1E0E6
:100B9000EAE0F0E602C005900D92AA33B107D9F75A
:100BA00023E0AAE3B2E001C01D92A930B207E1F749
:100BB0001BE0CEE7DBE004C02297FE010E94FA2F83
:100BC000CA37D107C9F70E94E12A0C9403300C946C
:100BD00000002F923F924F925F926F927F928F927E
:100BE0009F92AF92BF92CF92DF92EF92FF920F93BC
:100BF0001F93CF93DF9300D000D0CDB7DEB77A83B9
:100C00006983282F30E03C832B835901AA0CBB1C3D
:100C10008AE392E00E9480186B807C80680E791EC7
:100C20008AE392E00E9484188B809C80880E991E33
:100C30000E94CB271B012C01C12CD12CC614D70438
:100C4000ACF4E12CF12CE814F9046CF409811A815C
:100C50002B813C81A701B6018AE392E00E949310A8
:100C6000EA0CFB1CF0CFCA0CDB1CE8CF0E94CB27A0
:100C700062197309840995090F900F900F900F90D6
:100C8000DF91CF911F910F91FF90EF90DF90CF9068
:100C9000BF90AF909F908F907F906F905F904F909C
:100CA0003F902F900895EF920F9392E1E92E0EE07E
:100CB0002FE040E161E18AE392E00E94301B0F9156
:100CC000EF900895CF92DF92EF92FF920E94CB2790
:100CD0006B017C0160E070E08AE392E00E94982260
:100CE00060E078EF8AE392E00E94982260EE77E07D
:100CF0008AE392E00E9498226FE170E08AE392E03A
:100D00000E94982260E070E08AE392E00E949822BC
:100D10000E94CB276C197D098E099F09FF90EF90E7
:100D2000DF90CF900895CF92DF92EF92FF9260E034
:100D300070E08AE392E00E9498220E94CB276B0128
:100D40007C0140E050E060E070E08AE392E00E94C5
:100D500059186FEF7FEF8AE392E00E94651861E017
:100D60008AE392E00E945F1860E071E08AE392E01B
:100D70000E94722B60EE7FEF8AE392E00E9465187A
:100D800062E08AE392E00E945F1822E030E04CEEDD
:100D900051E56AE974E48AE392E00E94672D60E01D
:100DA00078EF8AE392E00E94651863E08AE392E0BC
:100DB0000E945F1820E130E04FEE5EEB6DEA7EEDC1
:100DC0008AE392E00E946A2C8AE392E00E945C2B04
:100DD00060EE77E08AE392E00E94651865E08AE3BE
:100DE00092E00E945F186DE071E08AE392E00E9459
:100DF000722B62E08AE392E00E945F1863E171E087
:100E00008AE392E00E94722B61E08AE392E00E9402
:100E10005F1863E271E08AE392E00E94722B6EE356
:100E200071E08AE392E00E94722B69E571E08AE347
:100E300092E00E94722B65E771E08AE392E00E94E3
:100E4000722B69E871E08AE392E00E94722B6CE9F0
:100E500071E08AE392E00E94722B66EB71E08AE314
:100E600092E00E94722B0E94CB276C197D098E099B
:100E70009F09FF90EF90DF90CF900895CF93C0E04F
:100E80006C2F8AE392E00E94EC230E94930660EDAF
:100E900077E080E090E00E94EE27CF5FC43081F7DA
:100EA000CF9108952F923F924F925F926F927F92CF
:100EB0008F929F92AF92BF92CF92DF92EF92FF926A
:100EC0000F931F93CF93DF9300D000D0CDB7DEB741
:100ED0002C018AE392E00E9480185C018AE392E090
:100EE0000E9484181C0160E070E08AE392E00E9496
:100EF0009822410121E0821A91080E94CB27C12C3F
:100F0000D12CCA14DB04ACF4E0913A02F0913B021C
:100F10000680F781E02D72018401960140E050E0E7
:100F200060E070E08AE392E0099536E0C30ED11CE0
:100F3000E8CF650141E0C41AD108612C712C62141C
:100F40007304ACF4E0913A02F0913B020680F78121
:100F5000E02D72018301960140E050E060E070E016
:100F60008AE392E0099556E0650E711CE8CF0E9475
:100F7000CB2760E070E08AE392E00E9498220E9412
:100F8000CB27612C712C6A147B04A4F4E0913A0203
:100F9000F0913B020680F781E02D720184019301FC
:100FA00040E050E0B6018AE392E0099586E0680EE1
:100FB000711CE9CF612C712C62147304ACF4E091C4
:100FC0003A02F0913B020680F781E02D7201830125
:100FD00020E030E040E050E0B6018AE392E009957D
:100FE000E6E06E0E711CE8CF0E94CB2760E070E057
:100FF0008AE392E00E9498220E94CB27612C712CF8
:101000006A147B04ACF4E0913A02F0913B02068052
:10101000F781E02D720100E010E09301A40160E08F
:1010200070E08AE392E00995F6E06F0E711CE8CF5C
:10103000612C712C62147304A4F4E0913A02F091D3
:101040003B020680F781E02D720183019601A40125
:1010500060E070E08AE392E0099526E0620E711C80
:10106000E9CF0E94CB2760E070E08AE392E00E9423
:1010700098220E94CB2769837A838B839C83612C7F
:10108000712C6A147B04A4F4E0913A02F0913B02C3
:101090000680F781E02D720100E010E09301A401C9
:1010A000B6018AE392E0099536E0630E711CE9CF40
:1010B000A12CB12CA214B304A4F4E0913A02F09153
:1010C0003B020680F781E02D7201850120E030E0CF
:1010D000A401B6018AE392E0099546E0A40EB11C92
:1010E000E9CF0E94CB2729813A814B815C81621B29
:1010F000730B840B950B0F900F900F900F90DF9157
:10110000CF911F910F91FF90EF90DF90CF90BF9004
:10111000AF909F908F907F906F905F904F903F9097
:101120002F9008952F923F924F925F926F927F92ED
:101130008F929F92AF92BF92CF92DF92EF92FF92E7
:101140000F931F93CF93DF933C018AE392E00E94B9
:10115000801897FD01961C01359427948AE392E04C
:101160000E94841897FD01962C015594479460E0E5
:1011700070E08AE392E00E9498228AE392E00E9463
:101180008018EC018AE392E00E948418C817D907FE
:101190002CF48AE392E00E94801804C08AE392E073
:1011A0000E9484186C010E94CB274B015C01C2E0B5
:1011B000D0E0CC15DD05D4F4CE01D7FD0196959590
:1011C0008795E0913A02F0913B02A201481B590B2E
:1011D000B101681B790B0484F585E02D73018E0144
:1011E0009E018AE392E009952696E3CF0E94CB27E1
:1011F000681979098A099B09DF91CF911F910F9195
:10120000FF90EF90DF90CF90BF90AF909F908F9026
:101210007F906F905F904F903F902F9008952F9206
:101220003F924F925F926F927F928F929F92AF9276
:10123000BF92CF92DF92EF92FF920F931F93CF93C3
:10124000DF93CDB7DEB728970FB6F894DEBF0FBE99
:10125000CDBFF82E7E836D838AE392E00E948018D2
:101260009A8389838AE392E00E9484189C838B830B
:101270002F2D30E038872F8360E070E08AE392E022
:101280000E9498220E94CB271B012C01AF80B884BA
:10129000AA0CBB1CC12CD12C6F8078846A187B08E7
:1012A0008F8098848C0C9D1C29813A81821693062C
:1012B000ECF4E12CF12C4F8158854E0D5F1DEA0CAA
:1012C000FB1CC3018E0D9F1DEB81FC818E179F07B8
:1012D00054F40D811E812F813885B4018AE392E098
:1012E0000E948313E8CFCA0CDB1CDACF0E94CB2705
:1012F000621973098409950928960FB6F894DEBF20
:101300000FBECDBFDF91CF911F910F91FF90EF9056
:10131000DF90CF90BF90AF909F908F907F906F9015
:101320005F904F903F902F9008952F923F924F9251
:101330005F926F927F928F929F92AF92BF92CF9265
:10134000DF92EF92FF920F931F93CF93DF93CDB76E
:10135000DEB728970FB6F894DEBF0FBECDBF8AE385
:1013600092E00E94801897FD01964C019594879415
:10137000240121E0421A51088AE392E00E94841875
:1013800097FD01968C0115950795180131E0231AF8
:10139000310860E070E08AE392E00E9498223A828D
:1013A00029824214530414F45A8249820E94CB27A2
:1013B0006B837C838D839E8338862F82612C712C76
:1013C000801A910AE981FA816E167F0624F5262D8E
:1013D00040E060E08AE392E00E94E71AEF80F88440
:1013E000E80CF91C9401220D331D5C01CF80D884D8
:1013F0008601A101B2018AE392E00E94EB1445E06C
:10140000640E711C55E0251A31088F819885059668
:1014100098878F83D7CF0E94CB272B813C814D812A
:101420005E81621B730B840B950B28960FB6F894A4
:10143000DEBF0FBECDBFDF91CF911F910F91FF9007
:10144000EF90DF90CF90BF90AF909F908F907F9064
:101450006F905F904F903F902F9008952F923F9202
:101460004F925F926F927F928F929F92AF92BF92B4
:10147000CF92DF92EF92FF920F931F93CF93DF9360
:10148000CDB7DEB760970FB6F894DEBF0FBECDBF05
:101490008AE392E00E94801897FD01964C01959492
:1014A0008794140121E0221A31088AE392E00E9415
:1014B000841897FD01968C0115950795380131E048
:1014C000631A710860E070E08AE392E00E9498225B
:1014D0000E94CB27788A6F862614370414F4388A42
:1014E0002F86412C512C3201A401415051095887BB
:1014F0004F83C80101979A8789878F8598890B97B1
:101500000CF459C00E94CB276B877C878D879E8700
:101510002F85422F60E08AE392E00E94E71AEF8174
:10152000F8852F853889E20FF31FFE83ED838984C8
:101530009A84820E931E4F815885421B530B5C8305
:101540004B83E985FA85E21BF30BFA83E9835C019F
:101550006401ED80FE8084019A01AF01B1018AE34C
:1015600092E00E9446150E94CB272B853C854D8535
:101570005E85621B730B840B950B460E571E681E0F
:10158000791E20E04F85642F8AE392E00E94E71ADB
:101590005C01ED80FE802B813C8149815A81B10143
:1015A0008AE392E00E94EB144F8558894550510917
:1015B000588B4F87A2CFC301B20160960FB6F89443
:1015C000DEBF0FBECDBFDF91CF911F910F91FF9076
:1015D000EF90DF90CF90BF90AF909F908F907F90D3
:1015E0006F905F904F903F902F9008952F923F9271
:1015F0004F925F926F927F928F929F92AF92BF9223
:10160000CF92DF92EF92FF920F931F93CF93DF93CE
:101610008AE392E00E94801897FD01961C013594A0
:10162000279421E0221A31088AE392E00E9484186C
:1016300097FD01965C01B594A79481E0A81AB108C2
:1016400060E070E08AE392E00E9498228AE392E0F0
:101650000E948018EC018AE392E00E948418C81767
:10166000D9072CF48AE392E00E94801804C08AE330
:1016700092E00E9484184C010E94CB272B013C0170
:10168000C0E0D0E0C815D90544F58E01D7FF02C0EF
:101690000F5F1F4F1595079520E040E06C2F8AE300
:1016A00092E00E94E71A7E01D7FF03C027E0E20E16
:1016B000F11CA3E0F594E794AA95E1F7A501401B7E
:1016C000510BB101601B710B6C018E019E018AE30D
:1016D00092E00E94BB132696D5CF0E94CB276419B7
:1016E000750986099709DF91CF911F910F91FF909E
:1016F000EF90DF90CF90BF90AF909F908F907F90B2
:101700006F905F904F903F902F9008954F925F920F
:101710006F927F928F929F92AF92BF92CF92DF9201
:10172000EF92FF920F931F93CF93DF938AE392E0A0
:101730000E94801897FD01965C01B594A79481E002
:10174000A81AB1088AE392E00E94841897FD0196D6
:101750004C019594879481E0881A910860E070E0CC
:101760008AE392E00E9498220E94CB272B013C0141
:101770008AE392E00E948018EC018AE392E00E94E2
:101780008418C817D9072CF48AE392E00E948018C5
:1017900004C08AE392E00E948418EC01C531D105AF
:1017A000FCF08E011595079520E04C2F60E08AE350
:1017B00092E00E94E71A7E0123E0F594E7942A95CF
:1017C000E1F7A401401B510BB501601B710B6C01CB
:1017D0008E019E018AE392E00E9479142697DECF63
:1017E0000E94CB276419750986099709DF91CF916B
:1017F0001F910F91FF90EF90DF90CF90BF90AF902F
:101800009F908F907F906F905F904F9008954F9230
:101810005F926F927F928F929F92AF92BF92CF9280
:10182000DF92EF92FF920F931F93CF93DF935C01B0
:101830004B018AE392E00E9480187C018AE392E0E7
:101840000E9484186C0160E070E08AE392E00E94DC
:1018500098220E94CB272B013C01C0E0D0E0CC15A0
:10186000DD055CF485019701AE0160E070E08AE37C
:1018700092E00E943E212596F2CFC0E0D0E0CE1546
:10188000DF055CF48401960140E050E0BE018AE38C
:1018900092E00E94A5212596F2CF0E94CB276419E1
:1018A000750986099709DF91CF911F910F91FF90DC
:1018B000EF90DF90CF90BF90AF909F908F907F90F0
:1018C0006F905F904F9008952F923F924F925F924A
:1018D0006F927F928F929F92AF92BF92CF92DF9240
:1018E000EF92FF920F931F93CF93DF93CDB7DEB7A5
:1018F0002A970FB6F894DEBF0FBECDBF9E838D83AF
:1019000078876F838AE392E00E94801897FD0196A2
:101910006C01D594C79421E0C21AD1088AE392E001
:101920000E94841897FD0196DC01B595A795119743
:10193000BA83A98360E070E08AE392E00E94982273
:101940008AE392E00E9480185C018AE392E00E94A0
:101950008418A816B90654F48AE392E00E9480180D
:101960009A878987812C912C540105C08AE392E0E3
:101970000E948418F5CFA985BA851A161B060CF0AB
:101980003FC029843A84359427940E94CB272B01A9
:101990003C01E981FA81E219F309FC83EB839601AA
:1019A000221933091901ED80FE8009851A859801F5
:1019B000AF01B1018AE392E00E940C220E94CB2782
:1019C0006419750986099709860E971EA81EB91E07
:1019D000E0913A02F0913B020484F585E02DEF801E
:1019E000F88409851A8598014B815C81B1018AE3ED
:1019F00092E0099589859A8506979A878987BBCF52
:101A0000C501B4012A960FB6F894DEBF0FBECDBF54
:101A1000DF91CF911F910F91FF90EF90DF90CF90CA
:101A2000BF90AF909F908F907F906F905F904F90FE
:101A30003F902F900895CF93DF9326E040E855E242
:101A400060E070E08CE692E00E94D9296EEF73E0CE
:101A50008CE692E00E94602B60ED73E08CE692E0F1
:101A60000E94602B66EC71E08CE692E00E94532BA2
:101A70008AE392E00E9480184AE050E0BC018CE6C4
:101A800092E00E94272C63ED71E08CE692E00E94C8
:101A9000532B8AE392E00E9484184AE050E0BC0194
:101AA0008CE692E00E942F2C8AE392E00E94881834
:101AB0008AE392E00E94A51EEC01C53283E9D807B3
:101AC00019F467EB73E031C0C53383E9D80719F423
:101AD0006EE973E02AC0C73283E9D80719F465E8D4
:101AE00073E023C0C83283E9D80719F46CE673E0C9
:101AF0001CC0C53785E7D80719F463E573E015C046
:101B0000C13483E9D80719F46AE373E00EC0C7351E
:101B100083E8D80719F461E273E007C0C43581E0B7
:101B2000D80709F028C168E073E08CE692E00E94D3
:101B3000602BBE018AE392E00E94BA2466EA71E05B
:101B40008CE692E00E94602B6CE871E08CE692E0FB
:101B50000E942E2B0E946206AB01BC012AE030E0FD
:101B60008CE692E00E946A2C64EF71E080E090E0E5
:101B70000E94EE2762E771E08CE692E00E942E2B35
:101B80000E949306AB01BC012AE030E08CE692E0B3
:101B90000E946A2C68EB7BE080E090E00E94EE27D8
:101BA00068E571E08CE692E00E942E2B8FEF97E0C3
:101BB0000E945207AB01BC012AE030E08CE692E0C3
:101BC0000E946A2C64EF71E080E090E00E94EE27B2
:101BD0006EE371E08CE692E00E942E2B6FE170E0E4
:101BE00080E098EF0E94070CAB01BC012AE030E0D6
:101BF0008CE692E00E946A2C64EF71E080E090E055
:101C00000E94EE2764E271E08CE692E00E942E2BA7
:101C100080EE97E00E949208AB01BC012AE030E020
:101C20008CE692E00E946A2C64EF71E080E090E024
:101C30000E94EE276AE071E08CE692E00E942E2B73
:101C40006FE178EF80EE9FEF0E94640CAB01BC0166
:101C50002AE030E08CE692E00E946A2C64EF71E0AA
:101C600080E090E00E94EE2760EF70E08CE692E06A
:101C70000E942E2B6FE178EF8AE00E940F09AB01E2
:101C8000BC012AE030E08CE692E00E946A2C66ED0E
:101C900070E08CE692E00E942E2B6FEF7FEF8AE0DF
:101CA0000E94E905AB01BC012AE030E08CE692E03D
:101CB0000E946A2C64EF71E080E090E00E94EE27C1
:101CC0006CEB70E08CE692E00E942E2B0E9495094E
:101CD000AB01BC012AE030E08CE692E00E946A2C65
:101CE00064EF71E080E090E00E94EE2762EA70E02D
:101CF0008CE692E00E942E2B0E942E0AAB01BC01C2
:101D00002AE030E08CE692E00E946A2C64EF71E0F9
:101D100080E090E00E94EE2768E870E08CE692E0B8
:101D20000E942E2B0E94F60AAB01BC012AE030E093
:101D30008CE692E00E946A2C64EF71E080E090E013
:101D40000E94EE276EE670E08CE692E00E942E2B59
:101D50000E94860BAB01BC012AE030E08CE692E0E9
:101D60000E946A2C64EF71E080E090E00E94EE2710
:101D700068E670E02DC06EEE72E08CE692E00E94A4
:101D80002E2B40E150E0BE018CE692E00E94542CE4
:101D900065EB72E08CE692E00E94602B60E972E0F5
:101DA0008CE692E00E94602B6AE572E08CE692E09D
:101DB0000E94602B62E272E08CE692E00E94602B4F
:101DC00069EE71E08CE692E00E94602B63ED71E0B9
:101DD0008CE692E0DF91CF910C94602B2F923F9292
:101DE0004F925F926F927F928F929F92AF92BF922B
:101DF000CF92DF92EF92FF920F931F93CF93DF93D7
:101E000000D000D0CDB7DEB74C017C836B836A0174
:101E10005901C8018701AC014C195D0957FF03C086
:101E200051954195510995016B817C81261B370B9A
:101E300037FF03C031952195310922242394312C99
:101E40002417350714F0212C312C2114310459F0BA
:101E50003A2D2B2D5C01832F922F3B812C81DC822C
:101E6000CB82C32ED22EAB81BC81AA16BB065CF4FA
:101E70003C2D2D2D6C01832F922F3B812C81BC8218
:101E8000AB82A32EB22E2501EB81FC814E1A5F0A94
:101E90003C016C187D0877FE03C071946194710851
:101EA000720157FE03C0FFEFEF1AFF0AF594E794A3
:101EB000C816D9062CF421E030E03A83298324C0E7
:101EC0006FEF7FEF7A8369831FC0D401ED91FC919E
:101ED0000480F581E02D980121143104D9F04B8163
:101EE0005C81B601C4010995E618F708F7FE06C043
:101EF000E981FA81CE0EDF1EE40CF51C2B813C81BA
:101F00002F5F3F4F3C832B836B817C81A616B706E6
:101F1000E4F604C0A6016B817C81E4CF0F900F90A2
:101F20000F900F90DF91CF911F910F91FF90EF9045
:101F3000DF90CF90BF90AF909F908F907F906F90E9
:101F40005F904F903F902F9008956F927F928F9265
:101F50009F92AF92BF92CF92DF92EF92FF920F9338
:101F60001F93CF93DF93EC015B016A0139014801B4
:101F7000E881F9810284F385E02D87010995E881E4
:101F8000F981A601480D591D415051090284F3857C
:101F9000E02D9301B501CE010995E881F981008416
:101FA000F185E02D9401A601B501CE010995E881E6
:101FB000F981B501660D771D615071090084F185C5
:101FC000E02D9401A601CE010995DF91CF911F91DB
:101FD0000F91FF90EF90DF90CF90BF90AF909F90C8
:101FE0008F907F906F900895EF92FF920F931F93C1
:101FF000DC01ED91FC91240F351F21503109068041
:10200000F781E02D780189019B0109951F910F91BE
:10201000FF90EF900895EF92FF920F931F93DC01D2
:10202000ED91FC91260F371F215031090680F78171
:10203000E02D78018A0109951F910F91FF90EF9093
:1020400008956F927F928F929F92AF92BF92CF929C
:10205000DF92EF92FF920F931F93CF93DF935C0178
:102060004A0169013801EB01C60ED71ECC15DD050A
:1020700074F4D501ED91FC910084F185E02D870188
:102080009301A401BE01C50109952196EFCFDF910F
:10209000CF911F910F91FF90EF90DF90CF90BF9065
:1020A000AF909F908F907F906F900895EF92FF92E6
:1020B0000F931F93DC01ED91FC9111971A960D91EE
:1020C0001C911B9718962D913C9119970684F785C2
:1020D000E02D7B0140E050E060E070E009951F9149
:1020E0000F91FF90EF9008950895FC0113821282E2
:1020F00089ED91E091838083758364835783468360
:102100007187608753874287158A158614861786DC
:10211000168621E0248B8FEF9FEF938B828B918B20
:10212000808B268B08952F923F924F925F926F92F1
:102130007F928F929F92AF92BF92CF92DF92EF9257
:10214000FF920F931F93CF93DF9300D000D000D066
:10215000CDB7DEB79E838D836B015A01790166246A
:102160006394712C621A730A44245524421A530A48
:10217000440C551CDC01ED91FC91420F531F04806F
:10218000F581E02D98010995AD81BE81ED91FC911D
:102190001197A5014E195F090480F581E02D980182
:1021A000B601CD010995AD81BE81ED91FC911197EC
:1021B000B6016E0D7F1D0480F581E02D9801A5010B
:1021C000CD010995AD81BE81ED91FC911197B601CC
:1021D0006E197F090480F581E02D9801A501CD01DC
:1021E0000995812C912C8E149F040CF0A1C077FCD2
:1021F00008C0B1E0EB1AF108E2E04E0E511C640C8D
:10220000751CFFEF8F1A9F0AC401880F991F019652
:10221000680E791EC4018C0D9D1D9C838B83AD813E
:10222000BE81ED91FC9111970480F581E02D98011C
:1022300015012E0C3F1CA101BC01CD010995F60131
:10224000E819F909FA83E983AD81BE81ED91FC912A
:1022500011970480F581E02D9801A10169817A81AF
:10226000CD010995AD81BE81ED91FC91119704805E
:10227000F581E02D980115012E183F08A1016B8111
:102280007C81CD010995AD81BE81ED91FC911197C5
:102290000480F581E02D9801A10169817A81CD0149
:1022A000099514012A0C3B1CAD81BE81ED91FC9176
:1022B00011970480F581E02D9801A101C6018E0DD2
:1022C0009F1D9C838B83BC01CD010995AD81BE818F
:1022D000ED91FC9111970480F581E02D9801A10109
:1022E000C6018E199F099A838983BC01CD01099586
:1022F000150128183908AD81BE81ED91FC91119727
:102300000480F581E02D9801A1016B817C81CD01D4
:102310000995AD81BE81ED91FC9111970480F58105
:10232000E02D9801A10169817A81CD0109955BCFEA
:1023300026960FB6F894DEBF0FBECDBFDF91CF91CA
:102340001F910F91FF90EF90DF90CF90BF90AF90D3
:102350009F908F907F906F905F904F903F902F90C5
:1023600008952F923F924F925F926F927F928F9239
:102370009F92AF92BF92CF92DF92EF92FF920F9314
:102380001F93CF93DF9300D000D000D0CDB7DEB73E
:102390009E838D834B013A016901802F442443942D
:1023A000512C421A530A22243324221A330A220CB3
:1023B000331CAA24A394B12C01E010E0982F947050
:1023C0009983A82FA270AA83B82FB870BB8381709D
:1023D0008C83C50101978C159D050CF0A6C057FC98
:1023E00008C0E1E0CE1AD108F2E02F0E311C420CF9
:1023F000531C0E5F1F4F400E511E8981882311F11F
:10240000AD81BE81ED91FC9111970480F581E02DA5
:102410009701A3014C0D5D1DB501680D791DCD011E
:102420000995AD81BE81ED91FC9111970480F581F4
:10243000E02D9701A501460D571DB4016C0D7D1DC2
:10244000CD010995BA81BB2311F1AD81BE81ED911A
:10245000FC9111970480F581E02D9701A3014C199F
:102460005D09B501680D791DCD010995AD81BE816C
:10247000ED91FC9111970480F581E02D9701A30166
:102480004A195B09B4016C0D7D1DCD010995BB8115
:10249000BB2311F1AD81BE81ED91FC9111970480B8
:1024A000F581E02D9701A501460D571DB4016C196A
:1024B0007D09CD010995AD81BE81ED91FC9111970A
:1024C0000480F581E02D9701A3014C0D5D1DB40141
:1024D0006A197B09CD010995BC81BB2311F1AD813E
:1024E000BE81ED91FC9111970480F581E02D97015B
:1024F000A3014A195B09B4016C197D09CD01099545
:10250000AD81BE81ED91FC9111970480F581E02DA4
:102510009701A3014C195D09B4016A197B09CD012A
:102520000995BFEFAB1ABB0A54CF26960FB6F894A5
:10253000DEBF0FBECDBFDF91CF911F910F91FF90F6
:10254000EF90DF90CF90BF90AF909F908F907F9053
:102550006F905F904F903F902F9008952F923F92F1
:102560004F925F926F927F928F929F92AF92BF92A3
:10257000CF92DF92EF92FF920F931F93CF93DF934F
:10258000CDB7DEB728970FB6F894DEBF0FBECDBF2C
:102590005C011B015A83498338872F83FC82EB82BD
:1025A00088248394912C821A930A3901719461943E
:1025B0007108660C771C270123E0420E511CEE24A3
:1025C000E394F12C302F31703D8302700E83C701EC
:1025D0000197EF81F8858E179F070CF07BC097FC61
:1025E0000AC08F819885019798878F8392E0690E42
:1025F000711C860C971CC201AB81BC818A1B9B0B92
:10260000880E991EBD81BB2369F1D501ED91FC9126
:102610002F813885220F331F2F5F3F4F8B819C8185
:10262000280F391F0084F185E02D860149815A81E8
:10263000AF81B8854A1B5B0BB701620D731DC501E5
:102640000995D501ED91FC910084F185E02D920171
:1026500049815A814E195F096F817885620D731D1A
:10266000C5010995BE81BB2371F1D501ED91FC91A6
:102670002F813885220F331F2F5F3F4F8B819C8125
:10268000280F391F0084F185E02D860149815A8188
:10269000AF81B8854A1B5B0BB1016E197F09C5017B
:1026A0000995D501ED91FC910084F185E02D920111
:1026B00049815A814E195F09B1018F819885681B44
:1026C000790BC50109959FEFE91AF90AA2E04A0EB4
:1026D000511C7DCF28960FB6F894DEBF0FBECDBF3C
:1026E000DF91CF911F910F91FF90EF90DF90CF90EE
:1026F000BF90AF909F908F907F906F905F904F9022
:102700003F902F9008956F927F928F929F92AF92F9
:10271000BF92CF92DF92EF92FF920F931F93CF93CE
:10272000DF93EC014B013A0159016801E881F9811D
:10273000220F331F2F5F3F4FA3014A195B0900840B
:10274000F185E02D0995E12CF12C03E09501A30121
:10275000B401CE010E94AE12DF91CF911F910F9173
:10276000FF90EF90DF90CF90BF90AF909F908F90B1
:102770007F906F9008952F923F924F925F926F9249
:102780007F928F929F92AF92BF92CF92DF92EF9201
:10279000FF920F931F93CF93DF93CDB7DEB72897A8
:1027A0000FB6F894DEBF0FBECDBF98878F833B0175
:1027B0004A013C832B831E830D835701EE24FF24A3
:1027C000EA18FB08EE0CFF1CC9018E0D9F1D9A83B1
:1027D00089832B014A0C5B1CAF81B885ED91FC917C
:1027E00011970284F385E02D86019C01A401B201BA
:1027F000CD0109952D803E80280C391CAF81B8850C
:10280000ED91FC911197A101415051090284F3858A
:10281000E02D29813A81B201CD010995ED81FE813A
:10282000EE0EFF1E8A0C9B1CAF81B885ED91FC91CA
:1028300011970084F185E02D9701A401B301CD012A
:102840000995EB81FC816E0E7F1EAF81B885ED91FD
:10285000FC911197B301615071090084F185E02D5D
:102860009701A401CD010995760101E09501A4012C
:10287000B2018F8198850E94B1116A187B08B1E07E
:102880006B1A710802E09501A401B3018F8198854C
:102890000E94B11141018A189B08E1E08E1A91084B
:1028A00004E09501A401B3018F8198850E94B111C4
:1028B00008E09501A401B2018F8198850E94B111B1
:1028C00028960FB6F894DEBF0FBECDBFDF91CF9133
:1028D0001F910F91FF90EF90DF90CF90BF90AF903E
:1028E0009F908F907F906F905F904F903F902F9030
:1028F00008952F923F924F925F926F927F928F92A4
:102900009F92AF92BF92CF92DF92EF92FF920F937E
:102910001F93CF93DF9300D000D000D0CDB7DEB7A8
:102920005C017A8369833A013C832B834801FE82F0
:10293000ED8226016701D194C194D108CC0CDD1C35
:102940001B012E0C3F1CD501ED91FC912C0D3D1D62
:102950000684F785E02D7201B101C50109958C0C43
:102960009D1CB1E08B1A9108ED81FE816E0E7F1ED9
:1029700069817A818B819C81680F791F6E1B7F0B27
:10298000615071096201740101E09F01A301C50159
:102990000E94AE1202E02D813E81A301B101C5016A
:1029A0000E94AE1226960FB6F894DEBF0FBECDBFC2
:1029B000DF91CF911F910F91FF90EF90DF90CF901B
:1029C000BF90AF909F908F907F906F905F904F904F
:1029D0003F902F9008952F923F924F925F926F9267
:1029E0007F928F929F92AF92BF92CF92DF92EF929F
:1029F000FF920F931F93CF93DF9300D000D0CDB7FA
:102A0000DEB79C838B831B012A0149013801FA82BE
:102A1000E982DC01ED91FC910680F781E02D7501E2
:102A20000995AB81BC81ED91FC9111970680F781EE
:102A3000E02D860129813A81A301B401CD010995D8
:102A4000AB81BC81ED91FC9111970680F781E02D5F
:102A500082019101A60169817A81CD0109950F90CA
:102A60000F900F900F90DF91CF911F910F91FF90DA
:102A7000EF90DF90CF90BF90AF909F908F907F901E
:102A80006F905F904F903F902F9008952F923F92BC
:102A90004F925F926F927F928F929F92AF92BF926E
:102AA000CF92DF92EF92FF920F931F93CF93DF931A
:102AB000CDB7DEB7AE970FB6F894DEBF0FBECDBF71
:102AC00098878F834B013A0129011EA70DA7B701F3
:102AD000DA82C982BE8AAD8A041715074CF4872DA5
:102AE00038014DA78EA7982D892D4901492E582EC2
:102AF0002DA53EA549815A81421753075CF49DA537
:102B00008EA55EA74DA799838A83942D852D2B01D1
:102B1000692F782F8DA59EA5861597055CF4962DB7
:102B2000872D6DA47EA49DA78EA7982D892D420187
:102B3000492E582EA981BA816A167B0619F54814C8
:102B400059042CF0942D852D2401892E982E64157E
:102B500075052CF0861697060CF44B01B201AF8177
:102B6000B885ED91FC9111979401261B370B2F5FCF
:102B70003F4F0284F385E02D0D891E89A301CD010D
:102B8000099552C1C201881999092DA53EA526199A
:102B90003709FB01E819F909FA87E98749815A8160
:102BA000461957095E874D87DB01A419B509BA8B11
:102BB000A98BE981FA814DA55EA5E41BF50BF88F81
:102BC000EF8B69817A814617570729F041505109E7
:102BD0005C8F4B8F04C0ADA5BEA5BC8FAB8F13011E
:102BE000A12CB12C65011B821C821D821E82A901B1
:102BF000662757FD6095762F4D8F5E8F6F8F78A378
:102C00002D853E85442737FD4095542F29A33AA3AF
:102C10004BA35CA3AC01662757FD6095762F4DA3AF
:102C20005EA36FA378A769857A85882777FD80954D
:102C3000982F69A77AA78BA79CA7EB8DFC8DE2152F
:102C4000F3050CF44EC06B817C818D819E812D8DAE
:102C50003E8D4F8D58A10E94BB2F7401E20EF31ED2
:102C6000C601B50129A13AA14BA15CA10E94BB2FCD
:102C7000B401620F731F8B819C81AD81BE812DA138
:102C80003EA14FA158A5820F931FA41FB51F8B8390
:102C90009C83AD83BE8389A59AA5ABA5BCA5A80ED0
:102CA000B91ECA1EDB1E6E157F052CF0962F872FCE
:102CB000B701E92EF82EAF81B885ED91FC911197FF
:102CC0009701261B370B2F5F3F4F0284F385E02DC2
:102CD0000D891E89A101CD010995BFEF2B1A3B0A71
:102CE000ACCF91014DA55EA5241B350B69897A896E
:102CF000629FC001639F900D729F900D11249C01F3
:102D0000442737FD4095542F2B833C834D835E83AE
:102D1000C1018619970949855A85489F6001499FD5
:102D2000D00C589FD00C1124EE24D7FCE094FE2C3C
:102D30006F89788D882777FD8095982F6F8B788F96
:102D4000898F9A8F8D859E85AA2797FDA095BA2F8A
:102D50008D879E87AF87B88B29893A89442737FDAD
:102D60004095542F298B3A8B4B8B5C8B49855A8528
:102D7000662757FD6095762F49875A876B877C8732
:102D8000E981FA81E215F3050CF44EC06B817C8178
:102D90008D819E812F89388D498D5A8D0E94BB2F40
:102DA0005201A20EB31EC701B6012D853E854F8587
:102DB00058890E94BB2FB401620F731F8B819C81C5
:102DC000AD81BE8129893A894B895C89820F931F25
:102DD000A41FB51F8B839C83AD83BE8389859A8591
:102DE000AB85BC85C80ED91EEA1EFB1E6A157B0585
:102DF0002CF0962F872FB501A92EB82EAF81B8855C
:102E0000ED91FC9111979501261B370B2F5F3F4FDA
:102E10000284F385E02D0D891E89A101CD0109955C
:102E2000BFEF2B1A3B0AACCFAE960FB6F894DEBFBD
:102E30000FBECDBFDF91CF911F910F91FF90EF900B
:102E4000DF90CF90BF90AF909F908F907F906F90CA
:102E50005F904F903F902F9008952F923F924F9206
:102E60005F926F927F928F929F92AF92BF92CF921A
:102E7000DF92EF92FF920F931F93CF93DF93CDB723
:102E8000DEB72C970FB6F894DEBF0FBECDBF9C8780
:102E90008B873A0118870F83FA86E986CD82DC0199
:102EA00018968D919C911997681779070CF094C02A
:102EB0001A968D919C911B97481759070CF08CC05E
:102EC0008C2C912CCB01B6E0CB9E800D911D112452
:102ED000181619060CF080C0C40153E0880F991F22
:102EE0005A95E1F7860D971D181619060CF074C057
:102EF000F5E02F9F200111245B016B011C829201E0
:102F0000255F3B4F2901461A570A3C81353031F085
:102F1000F201EA0DFB1D44914B8301C01B827A82B2
:102F2000698213011E828B8180FF13C0AB85BC8533
:102F3000ED91FC91BD81B13031F40480F581E02D3B
:102F40002F81388519C00684F785E02DEF80F8843D
:102F50001EC0E985FA852F813885E217F307F9F05D
:102F6000AB85BC85ED91FC91BD81B13059F40480F5
:102F7000F581E02D29853A85A101B5018B859C85D8
:102F800009950DC00684F785E02DE984FA84840153
:102F9000940149815A81B6018B859C850995EB8105
:102FA000E695EB83FE81FF5FFE8329813A81280D40
:102FB000391D3A8329833FEF231A330AF83009F089
:102FC000B2CF4C814F5F4C83C80CD91C8FEFA81A2D
:102FD000B80A463009F099CF2C960FB6F894DEBFA8
:102FE0000FBECDBFDF91CF911F910F91FF90EF905A
:102FF000DF90CF90BF90AF909F908F907F906F9019
:103000005F904F903F902F900895CF92EF92FF9254
:103010000F931F93CF93DF93EC01262F6A3049F46F
:103020002C898E859F8538E0239F800D911D11246A
:1030300032C06D30A1F1EA88FB88088919894E8574
:103040005F856C857D85CC880E942D172C89422F49
:1030500050E08C859D8536E0239F800D911D1124C5
:103060009D878C872E892223D1F06AEF640390011B
:10307000659F300D112468857985260F371F281725
:1030800039076CF463E0440F551F6A95E1F78E85AC
:103090009F85840F951F9F878E871D861C8681E0E4
:1030A00090E0DF91CF911F910F91FF90EF90CF9023
:1030B0000895FC01758764875787468708956111D5
:1030C00001C061E0FC01648B0895FC01738B628B8D
:1030D000718B608B0895FC016370658B8481958191
:1030E00026813781613039F0633029F091878087FC
:1030F00033872287089531872087938782870895B1
:10310000FC01808591850895FC0182859385089551
:10311000CF93DF93EC01E88DF98D808198A1892B05
:103120008083EC8DFD8D80819AA1892B8083EE8D2B
:10313000FF8D80819BA1892B808388A5882369F0DE
:1031400060E00E94BE2862E070E080E090E00E94B3
:10315000EE2761E088A50E94BE28E88DF98D808168
:103160009CA189238083EA8DFB8D80819DA1892389
:1031700080838BB183708BB985B18C7F85B9EC8DE1
:10318000FD8D80819EA189238083EC8DFD8D8081C2
:103190009AA1892B808383E0EC8DFD8D90812EA1F7
:1031A00092239083EC8DFD8D90812AA1922B9083A8
:1031B000815091F7E88DF98D808198A1892B8083CA
:1031C000DF91CF910895DF92EF92FF920F931F93BB
:1031D000CF93DF93FC01CB01A08DB18D6C9174A1D5
:1031E00067236C93A28DB38D6C9175A167236C934B
:1031F00067896230C9F06530B9F0611113C06BB1F5
:1032000063706BB965B16C7F65B9A48DB58D6C9138
:1032100076A167236C93A48DB58D6C9172A1672BF9
:103220006C9309C0633039F46BB163706C626BB935
:1032300065B16C7F07C06BB1637060626BB965B1DB
:103240006C7F626065B9A48DB58D6C9176A16723A2
:103250006C93A48DB58D6C9172A1672B6C93A28D2C
:10326000B38D6C9171A1672B6C936BB1C92FCC7F1F
:1032700063706C2B6BB965B1D92FD3706C7F6D2BDC
:1032800065B9A48DB58D6C9176A167236C93A48DDF
:10329000B58D6C9172A1672B6C936BB1782F7C7F8D
:1032A000F72E6370672B6BB965B1782F7370E72EBB
:1032B0006C7F672B65B9A48DB58D6C9176A1672362
:1032C0006C93A48DB58D6C9172A1672B6C93BA0130
:1032D000A90141505109610971098A019B0156E018
:1032E00036952795179507955A95D1F7981719F0A0
:1032F00080E090E03AC180E090E00817190709F4F7
:1033000066C020E1A48DB58D3C91C6A13C233C93C1
:10331000A48DB58D3C91C2A13C2B3C93A48DB58D61
:103320003C91C6A13C233C93A48DB58D3C91C2A198
:103330003C2B3C93A48DB58D3C91C6A13C233C9382
:10334000A48DB58D3C91C2A13C2B3C93A48DB58D31
:103350003C91C6A13C233C93A48DB58D3C91C2A168
:103360003C2B3C93A48DB58D3C91C6A13C233C9352
:10337000A48DB58D3C91C2A13C2B3C93A48DB58D01
:103380003C91C6A13C233C93A48DB58D3C91C2A138
:103390003C2B3C93A48DB58D3C91C6A13C233C9322
:1033A000A48DB58D3C91C2A13C2B3C93A48DB58DD1
:1033B0003C91C6A13C233C93A48DB58D3C91C2A108
:1033C0003C2B3C93215009F09DCF019696CF4F7333
:1033D0004150C8F0A48DB58D8C9196A189238C9312
:1033E000A48DB58D8C9192A1892B8C93A48DB58DD4
:1033F0008C9196A189238C93A48DB58D8C9192A1EB
:10340000892B8C93E5CFA08DB18D8C9190A1892BC8
:103410008C93DF91CF911F910F91FF90EF90DF90F0
:1034200008953BB133703C2B3BB935B13C7F3D2B0C
:1034300035B9A48DB58D3C91D6A03D213C93A48D8A
:10344000B58D3C91D2A03D293C933BB133703F29CF
:103450003BB935B13C7F3E2935B9A48DB58D3C9142
:10346000D6A03D213C93A48DB58D3C91D2A03D29A1
:103470003C933BB133703C2B3BB935B13C7F3D2B8A
:1034800035B9A48DB58D3C91D6A03D213C93A48D3A
:10349000B58D3C91D2A03D293C933BB133703F297F
:1034A0003BB935B13C7F3E2935B9A48DB58D3C91F2
:1034B000D6A03D213C93A48DB58D3C91D2A03D2951
:1034C0003C933BB133703C2B3BB935B13C7F3D2B3A
:1034D00035B9A48DB58D3C91D6A03D213C93A48DEA
:1034E000B58D3C91D2A03D293C933BB133703F292F
:1034F0003BB935B13C7F3E2935B9A48DB58D3C91A2
:10350000D6A03D213C93A48DB58D3C91D2A03D2900
:103510003C933BB133703C2B3BB935B13C7F3D2BE9
:1035200035B9A48DB58D3C91D6A03D213C93A48D99
:10353000B58D3C91D2A03D293C933BB133703F29DE
:103540003BB935B13C7F3E2935B9A48DB58D3C9151
:10355000D6A03D213C93A48DB58D3C91D2A03D29B0
:103560003C93215009F05DCF01960817190711F01F
:1035700020E157CF4F73415008F445CF8BB1837092
:103580008C2B8BB985B18C7F8D2B85B9A48DB58D96
:103590008C9196A189238C93A48DB58D8C9192A149
:1035A000892B8C938BB183708F298BB985B18C7FDC
:1035B0008E2985B9A48DB58D8C9196A189238C9384
:1035C000A48DB58D8C9192A1892B8C93D4CF4C7FF7
:1035D00038E0439FC001112430E073E03595279512
:1035E0007A95E1F7822B932B687F962B0895FC0147
:1035F000A68DB78D8C9197A189238C9300C000C0B4
:1036000000C0000089B193B1A68DB78D2C9133A174
:10361000232B2C9393708C7F892B08958AB18C6F08
:103620008AB984B1836084B90895CF93DF93EC01A4
:103630000E940E1B1D8A1D861C861F861E8681E029
:103640008C8B8FEF9FEF998B888B80EF90E0998721
:10365000888780E991E09B878A87DF91CF910895E1
:103660009F92AF92BF92CF92DF92EF92FF920F9311
:103670001F93CF93DF93EC01A62EF42EB22E902E43
:1036800040E951E060EF70E00E94751086E092E042
:1036900099838883E8A66A2D70E0FB01EE5AF44F07
:1036A000E491F0E0EE0FFF1FEA59F44FA591B491B9
:1036B000B98FA88F4F2D50E0FA01EE5AF44FE491E4
:1036C000F0E0EE0FFF1FEA59F44F859194919B8F24
:1036D0008A8F2B2D30E0F901EE5AF44FE491F0E09F
:1036E000EE0FFF1FEA59F44F859194919D8F8C8FB7
:1036F000092D10E0F801EE5AF44FE491F0E0EE0FDE
:10370000FF1FEA59F44FC590D490DF8ECE8EFB0197
:10371000E25CF44F649168A3FA01E25CF44F4491D7
:1037200049A3F901E25CF44F24912AA3F801E25C79
:10373000F44F04910BA398A1892F80958CA389A1A4
:1037400080958DA38AA180958EA300950FA38C915F
:10375000892B8C93EA8DFB8D808199A1892B8083A5
:10376000EC8DFD8D80819AA1892B8083EE8DFF8D5C
:1037700080819BA1892B808361E08A2D0E9485280E
:1037800061E08F2D0E94852861E08B2D0E948528A5
:1037900061E0892D0E948528EE2041F061E08E2DA8
:1037A0000E94BE2861E08E2D0E948528CE01DF9107
:1037B000CF911F910F91FF90EF90DF90CF90BF902E
:1037C000AF909F900C94151B8AB183708AB984B115
:1037D0008C7F84B90895CF92DF92EF92FF920F937E
:1037E0001F93CF93DF931F92CDB7DEB78C01DC011F
:1037F0005896ED91FC915997808194969C9194975D
:10380000892380835A96ED91FC915B9780819596F0
:103810009C919597892380839BB1862F8C7F937091
:10382000892B8BB995B1862F83709C7F892B85B9A5
:103830005C96ED91FC915D97808196969C91969710
:10384000892380835C96ED91FC915D9780819296AF
:103850009C91892B8083C80169830E94E41BD80155
:103860005A96ED91FC915B97808191969C91892B62
:10387000808382E390E00E941628C8010E94F71A14
:10388000C82ED12CE12CF12CFE2CED2CDC2CCC24E0
:10389000C8010E94F71AC82AFE2CED2CDC2CCC247F
:1038A000C8010E94F71AC82AFE2CED2CDC2CCC246F
:1038B000C8010E94F71AC82A69816F3E41F4FE2CA4
:1038C000ED2CDC2CCC24C8010E94F71AC82AD801A0
:1038D0005896ED91FC915997808190969C91892BF7
:1038E0008083C8010E940E1B66E970E080E090E0D2
:1038F0000E94EE27C701B6010F90DF91CF911F9173
:103900000F91FF90EF90DF90CF900895FC01A28D72
:10391000B38D8C9195A189238C939BB1862F8C7F3D
:103920009370892B8BB985B163708C7F682B65B9D7
:10393000A48DB58D8C9196A189238C93A48DB58D82
:103940008C9192A1892B8C93A28DB38D8C9191A196
:10395000892B8C939BB1842F8C7F9370892B8BB98F
:1039600085B143708C7F482B45B9A48DB58D8C9162
:1039700096A189238C93A48DB58D8C9192A1892BCE
:103980008C930895FC01A28DB38D8C9195A1892310
:103990008C939BB1872F8C7F9370892B8BB985B1CA
:1039A00073708C7F782B75B9A48DB58D8C9196A191
:1039B00089238C93A48DB58D8C9192A1892B8C93A6
:1039C0009BB1862F8C7F9370892B8BB985B16370E7
:1039D0008C7F682B65B9A48DB58D8C9196A18923B8
:1039E0008C93A48DB58D8C9192A1892B8C93A28DF3
:1039F000B38D8C9191A1892B8C939BB1852F8C7F5A
:103A00009370892B8BB985B153708C7F582B55B926
:103A1000A48DB58D8C9196A189238C93A48DB58DA1
:103A20008C9192A1892B8C939BB1842F8C7F937066
:103A3000892B8BB985B143708C7F482B45B9A48DF8
:103A4000B58D8C9196A189238C93A48DB58D8C9185
:103A500092A1892B8C930895FC01A28DB38D8C913A
:103A600095A189238C939BB1862F8C7F9370892B92
:103A70008BB985B163708C7F682B65B9A48DB58DCA
:103A80008C9196A189238C93A48DB58D8C9192A154
:103A9000892B8C93A28DB38D8C9191A1892B8C93C2
:103AA0009BB1832F8C7F9370892B8BB985B1337039
:103AB0008C7F382B35B9A48DB58D8C9196A1892337
:103AC0008C93A48DB58D8C9192A1892B8C93A28D12
:103AD000B38D8C9195A189238C939BB1842F8C7F7E
:103AE0009370892B8BB985B143708C7F482B45B976
:103AF000A48DB58D8C9196A189238C93A48DB58DC1
:103B00008C9192A1892B8C93A28DB38D8C9191A1D4
:103B1000892B8C939BB1822F8C7F9370892B8BB9CF
:103B200085B123708C7F282B25B9A48DB58D8C9100
:103B300096A189238C93A48DB58D8C9192A1892B0C
:103B40008C930895CF93DF93EC01E88DF98D8081FC
:103B50009CA189238083288539852150310945E03E
:103B600064E0CE010E942C1D2A853B85215031093D
:103B700049E068E0CE010E942C1DE88DF98D80811E
:103B800098A1892B8083DF91CF9108950F931F9384
:103B9000CF93DF9300D000D0CDB7DEB78C01DC012E
:103BA0005896ED91FC915997808194969C919497A9
:103BB000892380835A96ED91FC915B97808195963D
:103BC0009C919597892380839BB1862F8C7F9370DE
:103BD000892B8BB985B163708C7F682B65B95C9636
:103BE000ED91FC915D97808196969C9196978923A3
:103BF00080835C96ED91FC915D97808192969C917B
:103C00009297892B80835A96ED91FC915B978081E6
:103C100091969C91892B80838AE090E029833A8356
:103C20004B835C830E9416287BB129813A814B81AA
:103C30005C81CA01AA27BB27682F6C7F7370672B32
:103C40006BB965B183706C7F862B85B9D8015C96A2
:103C5000ED91FC915D97808196969C919697892332
:103C600080835C96ED91FC915D97808192969C910A
:103C7000892B80838AE090E029833A834B835C839D
:103C80000E941628FBB129813A814B815C81BB27B8
:103C9000A52F942F832FE82FEC7FF370EF2BEBB938
:103CA000E5B1682F6370EC7F6E2B65B9D8015C9627
:103CB000ED91FC915D97808196969C9196978923D2
:103CC00080835C96ED91FC915D97808192969C91AA
:103CD000892B80838AE090E029833A834B835C833D
:103CE0000E9416289BB12981822F8C7F9370892B8B
:103CF0008BB985B123708C7F282B25B9D8015C96B0
:103D0000ED91FC915D97808196969C919697892381
:103D100080835C96ED91FC915D97808192969C9159
:103D20009297892B80835896ED91FC9159978081C9
:103D300090969C91892B80830F900F900F900F90FD
:103D4000DF91CF911F910F9108950F931F93CF9300
:103D5000DF93EC0164E00E94EB1B61157048810564
:103D6000910549F063EDCE010E94EB1B613473496C
:103D700009F46BC01AC027E533E84FEF50E069EB58
:103D8000CE010E94C61D6CE271E080E090E00E94CE
:103D9000EE2760EDCE010E94EB1B6115710589498C
:103DA000910501F787E593E855C06FEECE010E94BB
:103DB000EB1B6732734909F44BC0E88DF98D8081A4
:103DC0009CA189238083EA8DFB8D80819DA189231D
:103DD00080838BB183708BB985B18C7F85B9EC8D75
:103DE000FD8D80819EA189238083EC8DFD8D808156
:103DF0009AA1892B8083EC8DFD8D80819EA18923E2
:103E00008083EC8DFD8D80819AA1892B8083CE01EA
:103E10000E94E41BEA8DFB8D808199A1892B808310
:103E2000CE010E94F71A182FCE010E94F71A082F10
:103E3000CE010E940E1BE88DF98D908188A1982BF0
:103E40009083802F90E0912B05C081E493E902C01C
:103E500087E293E9DF91CF911F910F9108950F931E
:103E60001F93CF93DF9300D000D0CDB7DEB78C0186
:103E7000DC015896ED91FC915997808194969C9124
:103E80009497892380835A96ED91FC915B9780816A
:103E900095969C919597892380839BB1862F8C7FE3
:103EA0009370892B8BB985B163708C7F682B65B952
:103EB0005C96ED91FC915D97808196969C9196978A
:103EC000892380835C96ED91FC915D978081929629
:103ED0009C919297892B80835A96ED91FC915B97E8
:103EE000808191969C91892B80838AE090E0298340
:103EF0003A834B835C830E9416287BB129813A81E7
:103F00004B815C81852F9927AA27BB27682F6C7F5F
:103F10007370672B6BB965B183706C7F862B85B925
:103F2000D8015C96ED91FC915D97808196969C916D
:103F30009697892380835C96ED91FC915D978081B3
:103F400092969C91892B80838AE090E029833A8322
:103F50004B835C830E9416287BB129813A814B8177
:103F60005C81CA01AA27BB27682F6C7F7370672BFF
:103F70006BB965B183706C7F862B85B9D8015C966F
:103F8000ED91FC915D97808196969C9196978923FF
:103F900080835C96ED91FC915D97808192969C91D7
:103FA000892B80838AE090E029833A834B835C836A
:103FB0000E941628FBB129813A814B815C81BB2785
:103FC000A52F942F832FE82FEC7FF370EF2BEBB905
:103FD000E5B1682F6370EC7F6E2B65B9D8015C96F4
:103FE000ED91FC915D97808196969C91969789239F
:103FF00080835C96ED91FC915D97808192969C9177
:10400000892B80838AE090E029833A834B835C8309
:104010000E9416289BB12981822F8C7F9370892B57
:104020008BB985B123708C7F282B25B9D8015C967C
:10403000ED91FC915D97808196969C91969789234E
:1040400080835C96ED91FC915D97808192969C9126
:104050009297892B80835896ED91FC915997808196
:1040600090969C91892B80830F900F900F900F90CA
:10407000DF91CF911F910F9108958F929F92AF92F0
:10408000BF92CF92DF92EF92FF920F931F93CF9345
:10409000DF93EC017A016901E88DF98D80819CA1A3
:1040A00089238083EF898E2F8B7F09F089C08D89CA
:1040B000823089F0833021F1813081F58FEE90E0FC
:1040C0009C01201B310B5B014C01841A950A86016F
:1040D00064017B0113C08FEE90E09C012C193D0917
:1040E0006C01C61AD70A8FE891E0AC01401B510B56
:1040F0008C010E191F09580146017A01B90110C03F
:104100008FE891E09C012C193D095C01A61AB70AC1
:104110004A0168018501B701790102C05A014B01CA
:10412000AB01E43049F567E370E0CE010E94C21CA8
:10413000A60166E370E0CE010E94C21CA70169E3FC
:1041400070E0CE010E94C21CA80168E370E0CE01BD
:104150000E94C21CA40160E270E0CE010E94C21C59
:10416000A50161E270E0CE010E94C21C40E062E263
:10417000CE010E94861C6FC060E570E0CE010E94F7
:10418000C21CA60161E570E0CE010E94C21CA7011D
:1041900062E570E0CE010E94C21CA80163E570E0F8
:1041A000CE010E94C21CA40160E270E0CE010E9418
:1041B000C21CA50161E270E0CE010E94C21C4BC08E
:1041C000E130C9F49B0143E062E0CE010E942C1D66
:1041D000970147E066E0CE010E942C1D960145E064
:1041E00064E0CE010E942C1D980149E068E0CE01F8
:1041F0000E942C1D30C08EEF8E0F823010F0E53003
:1042000051F5CB01AA2797FDA095BA2FAC01332712
:104210002227C601AA2797FDA095BA2F282B392B54
:104220004A2B5B2B6AE2CE010E942F1FC701AA27EF
:1042300097FDA095BA2FAC0133272227C801AA27E2
:1042400097FDA095BA2F282B392B4A2B5B2B6BE2BD
:10425000CE010E942F1FE88DF98D808198A1892BB6
:104260008083DF91CF911F910F91FF90EF90DF90AE
:10427000CF90BF90AF909F908F900895CF92DF9294
:10428000EF92FF920F931F93CF93DF93EC0169019D
:104290007801121613060CF04FC057FD4DC08A85E9
:1042A0009B85481759070CF047C088859985681782
:1042B00079070CF041C0FB01E20FF31F9F01215071
:1042C000310937FD39C077FF03C06F0160E070E04E
:1042D0002817390734F09C01215031096C01C61AA6
:1042E000D70A8A01CE010E943D209601442737FD5E
:1042F0004095542FB701CE010E94E3188F89811198
:1043000010C00A851B850150110928853985215067
:10431000310940E050E060E070E0CE010E943D20B5
:104320000BC0CE01DF91CF911F910F91FF90EF90C5
:10433000DF90CF900C94A21DDF91CF911F910F9130
:10434000FF90EF90DF90CF900895CF92DF92EF92A1
:10435000FF920F931F93CF93DF93EC0169017801D4
:10436000121613060CF04FC077FD4DC08885998555
:10437000681779070CF047C08A859B85481759074D
:104380000CF041C09A012C0D3D1D8901015011090D
:1043900017FD39C057FF03C0690140E050E008171E
:1043A000190734F08C01015011096C01C41AD50AA7
:1043B0009B01CE010E943D209601442737FD409588
:1043C000542FB701CE010E94E3188F89811110C0CC
:1043D0000A851B850150110928853985215031092D
:1043E00040E050E060E070E0CE010E943D200BC054
:1043F000CE01DF91CF911F910F91FF90EF90DF9051
:10440000CF900C94A21DDF91CF911F910F91FF903F
:10441000EF90DF90CF9008958F929F92AF92BF92CE
:10442000CF92DF92EF92FF920F931F93CF93DF9380
:10443000EC01590168014701121613060CF06BC01C
:10444000101611060CF067C08885998568177907E2
:104450000CF061C0EA84FB844E155F050CF05BC074
:10446000FB01E20FF31F9F012150310937FD53C0BB
:10447000DA01A00FB11F8D010150110917FD4BC0CA
:1044800077FF03C05F0160E070E057FF03C06D017C
:1044900040E050E02817390734F09C0121503109E1
:1044A0005C01A61AB70A0E151F0534F087010150EA
:1044B00011096701C41AD50ACE010E943D20960158
:1044C000D5010E94DA2F9B01AC01B401CE010E94FC
:1044D000E3188F89811110C00A851B8501501109CD
:1044E000288539852150310940E050E060E070E0D6
:1044F000CE010E943D200FC0CE01DF91CF911F91D0
:104500000F91FF90EF90DF90CF90BF90AF909F9072
:104510008F900C94A21DDF91CF911F910F91FF906E
:10452000EF90DF90CF90BF90AF909F908F900895C5
:10453000EF92FF920F931F93CF93DF93EC017B01D8
:104540008F89811127C0ED89E150E33068F4F0E0F4
:10455000DF01A150BE4F4C9150E0EE0FFF1FE7501E
:10456000FE4F0081118104C000E010E040E050E007
:10457000E88DF98D80819CA18923808360E270E0C1
:10458000CE010E94C21CA80161E270E0CE010E942F
:10459000C21C12C08150853078F40A851B850150F9
:1045A0001109288539852150310940E050E060E04B
:1045B00070E0CE010E943D2020E037E741E050E06E
:1045C000B701CE01DF91CF911F910F91FF90EF9036
:1045D0000C94E318AF92BF92CF92DF92EF92FF92CA
:1045E0000F931F93CF93DF93EC016B017A01B22EEF
:1045F000A32E77FDE6C057FDE4C08885998568172E
:1046000079070CF0DEC08A859B85481759070CF0A6
:10461000D8C0E88DF98D80819CA1892380838F8902
:10462000982F9B7FA9F58D89823059F08330B1F0A6
:104630008130D1F48FEE90E0841B950B7B016C01EF
:1046400013C08FEE90E09C01261B370B69018FE8A9
:1046500091E09C01241B350B790106C08FE891E0A5
:10466000861B970B6A017C01A60160E270E0CE0117
:104670000E94C21CA70161E270E0CE010E94C21C30
:104680004B2D5A2D62E270E0CE010E94C21C93C0F5
:10469000813041F5ED89E150E33028F4F0E0EA5053
:1046A000FE4F408101C040E066E1CE010E94861CC1
:1046B000960143E062E0CE010E942C1D970147E085
:1046C00066E0CE010E942C1DEA8DFB8D80819DA1AC
:1046D000892380838BB1837080628BB985B18C7F95
:1046E000826026C09EEF980F923018F0853009F056
:1046F00062C00A851B850150110928853985215022
:104700003109A701B601CE010E943D20E88DF98D47
:1047100080819CA189238083EA8DFB8D80819DA16E
:10472000892380838BB183708C628BB985B18C7F38
:1047300085B9EC8DFD8D80819EA189238083EC8DD0
:10474000FD8D80819AA1892B8083EA8DFB8D8081EC
:1047500099A1892B80839BB18A2D8C7F9370892BA3
:104760008BB995B18A2D83709C7F892B85B9EC8D8F
:10477000FD8D80819EA189238083EC8DFD8D8081BC
:104780009AA1892B80839BB18B2D8C7F9370892B71
:104790008BB995B18B2D83709C7F892B85B9EC8D5E
:1047A000FD8D80819EA189238083EC8DFD8D80818C
:1047B0009AA1892B8083E88DF98D808198A1892B1E
:1047C0008083DF91CF911F910F91FF90EF90DF9049
:1047D000CF90BF90AF900895DF92EF92FF920F932A
:1047E0001F93CF93DF93EC010E946B18E88DF98D36
:1047F00080819CA1892380838F898B7F11F5ED892E
:10480000E150E33040F4F0E0EE0FFF1FE051FE4FC7
:104810004081518102C040E350E163E070E0CE018D
:104820000E94C21C0A851B85015011092885398503
:104830002150310940E050E060E070E0CE010E947C
:104840003D208F89813089F4ED89E150E33028F4EF
:10485000F0E0E351FE4F408101C040E066E1CE014F
:104860000E94861CCE010E94A21D8F89823039F5DC
:104870008D89813059F038F0823059F0833059F405
:1048800038E2D32E08C028E8D22E05C098EED92EE3
:1048900002C088E4D82E4D2D66E3CE010E94861C0E
:1048A0000A851B8501501109288539852150310958
:1048B00040E050E060E070E0CE010E943D208F8932
:1048C000833031F58D89813059F038F0823059F0DC
:1048D000833051F400E6E02E07C010ECE12E04C056
:1048E000B0EAEB2E01C0E12C4E2D66E3CE010E9412
:1048F000861C0A851B8501501109288539852150A0
:10490000310940E050E060E070E0CE010E943D20BF
:104910008F89853039F58D89813059F038F08230B2
:1049200059F0833059F4A8EEFA2E08C0FAE0FF2EB1
:1049300005C0E8E2FE2E02C078E8F72E4F2D66E3B0
:10494000CE010E94861C0A851B850150110928850D
:1049500039852150310940E050E060E070E0CE013F
:104960000E943D20DF91CF911F910F91FF90EF901A
:10497000DF9008950F931F93CF93DF93EC018B018A
:104980000E94881868EC70E080E090E00E94EE27BA
:10499000053283E9180721F00832E3E91E0741F5E3
:1049A0001F8AE88DF98D80819CA18923808302EC88
:1049B00019E0F80185919491F8013296459154914E
:1049C0008F3F910531F4BA0180E090E00E94EE271C
:1049D00004C0BC01CE010E94C21C0C5F1F4FFAE054
:1049E0000E381F0731F76D89CE010E94EC23FBC101
:1049F000013483E9180709F078C082E08F8BE88DD5
:104A0000F98D80819CA18923808380E0E82FF0E0EC
:104A1000EA5AF64F949112E0180F61E0680FE62F02
:104A2000F0E0EA5AF64F64919F3F31F470E080E085
:104A300090E00E94EE2754C0A88DB98D2C913CA126
:104A400023232C93AA8DBB8D2C913DA123232C9342
:104A50003BB1292F2C7F3370232B2BB925B19370B9
:104A60002C7F922B95B9EC8DFD8D90812EA19223F8
:104A70009083EC8DFD8D90812AA1922B9083EA8DFD
:104A8000FB8D908129A1922B9083860F8E5FE12F61
:104A9000E817F9F031E03E0FF0E0EA5AF64FE49102
:104AA0002BB19E2F9C7F2370922B9BB995B1E37005
:104AB0009C7FE92BE5B9EC8DFD8D90812EA1922391
:104AC0009083EC8DFD8D90812AA1922B9083E32F12
:104AD000DFCF160FE88DF98D808198A1892B808317
:104AE0001C3608F009C2812F91CF0735E3E81E0775
:104AF00009F078C083E08F8BE88DF98D80819CA1CF
:104B00008923808380E0E82FF0E0E257F54F94910D
:104B100012E0180F61E0680FE62FF0E0E257F54F62
:104B200064919F3F31F470E080E090E00E94EE27B6
:104B300054C0A88DB98D2C913CA123232C93AA8D10
:104B4000BB8D2C913DA123232C933BB1292F2C7F8E
:104B50003370232B2BB925B193702C7F922B95B9F1
:104B6000EC8DFD8D90812EA192239083EC8DFD8D97
:104B700090812AA1922B9083EA8DFB8D908129A1AF
:104B8000922B9083860F8E5FE12FE817F9F031E0CA
:104B90003E0FF0E0E257F54FE4912BB19E2F9C7F42
:104BA0002370922B9BB995B1E3709C7FE92BE5B9FB
:104BB000EC8DFD8D90812EA192239083EC8DFD8D47
:104BC00090812AA1922B9083E32FDFCF160FE88DDF
:104BD000F98D808198A1892B8083163408F08CC1CF
:104BE000812F91CF0537F5E71F0761F581E08F8BA6
:104BF000E88DF98D80819CA18923808304ED1AE0E2
:104C0000F8018491319644918F3F39F4642F70E01C
:104C100080E090E00E94EE2704C0682FCE010E9441
:104C2000861C0E5F1F4FFBE00A321F0749F76D8994
:104C3000CE010E94EC23CE01DF91CF911F910F9105
:104C40000C94A21D043581E0180709F0D8C084E057
:104C50008F8BE88DF98D80819CA1892380834AE127
:104C600050E061E170E0CE010E94C21C41E251E3DC
:104C700062E170E0CE010E94C21C4CE650E063E1AC
:104C800070E0CE010E94C21C49E452E464E170E08D
:104C9000CE010E94C21C40E058E060E170E0CE010D
:104CA0000E94C21C6AE070E080E090E00E94EE2763
:104CB0004AE151E061E170E0CE010E94C21C6AE06D
:104CC00070E080E090E00E94EE274AE153E061E16D
:104CD00070E0CE010E94C21C6AE070E080E090E0CB
:104CE0000E94EE274AE157E061E170E0CE010E94A8
:104CF000C21C6AE070E080E090E00E94EE274AE18A
:104D00005FE061E170E0CE010E94C21C64E170E0EE
:104D100080E090E00E94EE274AE35FE061E170E00E
:104D2000CE010E94C21C6EE170E080E090E00E9423
:104D3000EE2748E251E061E070E0CE010E94C21C23
:104D400040E051E062E070E0CE010E94C21C40E30E
:104D500050E163E070E0CE010E94C21C42E150E1EC
:104D600067E070E0CE010E94C21C43E053E068E0BF
:104D700070E0CE010E94C21C40E051E16BE070E0A7
:104D8000CE010E94C21C40E050E06CE070E0CE0119
:104D90000E94C21C41E058E16FE070E0CE010E9429
:104DA000C21C40E250E065E170E0CE010E94C21CEE
:104DB00042E150E067E070E0CE010E94C21C68E270
:104DC00070E080E090E00E94EE2743E150E067E071
:104DD00070E0CE010E94C21C47E150E067E070E045
:104DE000CE010E94C21C0FE811E02FEE30E040E03F
:104DF00050E060E070E0CE010E943D207DC00732AF
:104E0000134909F077C085E08F8BE88DF98D80819B
:104E10009CA18923808380E0E82FF0E0EA5FF64FD1
:104E2000949112E0180F61E0680FE62FF0E0EA5F5E
:104E3000F64F64919F3F31F470E080E090E00E9473
:104E4000EE2754C0A88DB98D2C913CA123232C931F
:104E5000AA8DBB8D2C913DA123232C933BB1292FEF
:104E60002C7F3370232B2BB925B193702C7F922B81
:104E700095B9EC8DFD8D90812EA192239083EC8DC0
:104E8000FD8D90812AA1922B9083EA8DFB8D9081DC
:104E900029A1922B9083860F8E5FE12FE817F9F0FE
:104EA00031E03E0FF0E0EA5FF64FE4912BB19E2F28
:104EB0009C7F2370922B9BB995B1E3709C7FE92B6B
:104EC000E5B9EC8DFD8D90812EA192239083EC8D20
:104ED000FD8D90812AA1922B9083E32FDFCF160FB7
:104EE000E88DF98D808198A1892B8083103520F47D
:104EF000812F92CF8FEF8F8BDF91CF911F910F91E9
:104F000008951F920F920FB60F9211242F933F9383
:104F10008F939F93AF93BF938091640290916502AA
:104F2000A0916602B09167023091630223E0230FE3
:104F30002D3720F40196A11DB11D05C026E8230FD1
:104F40000296A11DB11D2093630280936402909389
:104F50006502A0936602B093670280916802909107
:104F60006902A0916A02B0916B020196A11DB11D68
:104F70008093680290936902A0936A02B0936B02D7
:104F8000BF91AF919F918F913F912F910F900FBE45
:104F90000F901F9018953FB7F894809168029091F8
:104FA0006902A0916A02B0916B0226B5A89B05C068
:104FB0002F3F19F00196A11DB11D3FBF6627782F25
:104FC000892F9A2F620F711D811D911D42E0660F7E
:104FD000771F881F991F4A95D1F70895CF92DF92C6
:104FE000EF92FF92CF93DF936B017C010E94CB275E
:104FF000EB01C114D104E104F10489F00E94792D80
:105000000E94CB276C1B7D0B683E734090F381E0C0
:10501000C81AD108E108F108C851DC4FEACFDF9186
:10502000CF91FF90EF90DF90CF900895823091055F
:1050300038F0880F991F880F991F05970197F1F78E
:105040000895789484B5826084BD84B5816084BD00
:1050500085B5826085BD85B5816085BDEEE6F0E0F1
:10506000808181608083E1E8F0E01082808182604D
:105070008083808181608083E0E8F0E080818160CE
:105080008083E1EBF0E0808184608083E0EBF0E0FE
:10509000808181608083EAE7F0E0808184608083A2
:1050A000808182608083808181608083808180684C
:1050B00080831092C1000895833081F028F48130FC
:1050C00099F08230A1F008958730A9F08830B9F0C6
:1050D0008430D1F4809180008F7D03C08091800066
:1050E0008F7780938000089584B58F7702C084B550
:1050F0008F7D84BD08958091B0008F7703C080912B
:10510000B0008F7D8093B0000895CF93DF9390E03F
:10511000FC01E25CF44F2491FC01EE5AF44F8491BF
:10512000882349F190E0880F991FFC01E059F44F62
:10513000A591B4918A59944FFC01C591D4919FB720
:10514000611108C0F8948C91209582238C938881FA
:1051500082230AC0623051F4F8948C91322F30953A
:1051600083238C938881822B888304C0F8948C914C
:10517000822B8C939FBFDF91CF9108950F931F9344
:10518000CF93DF931F92CDB7DEB7282F30E0F90120
:10519000E65DF44F8491F901E25CF44F1491F9015A
:1051A000EE5AF44F04910023C9F0882321F069835B
:1051B0000E945C286981E02FF0E0EE0FFF1FEA59A2
:1051C000F44FA591B4919FB7F8948C91611103C0ED
:1051D0001095812301C0812B8C939FBF0F90DF918D
:1051E000CF911F910F9108950E94FE2FFC01818D98
:1051F000228D90E0805C9F4F821B91098F739927CD
:105200000895FC01918D828D981731F0828DE80F01
:10521000F11D858D90E008958FEF9FEF0895FC01BB
:10522000918D828D981761F0828DDF01A80FB11DDD
:105230005D968C91928D9F5F9F73928F90E0089501
:105240008FEF9FEF089583E99AE2892B49F080E080
:1052500090E0892B29F00E94932A81110C94000080
:105260000895FC01848DDF01A80FB11DA35ABF4F23
:105270002C91848D90E001968F739927848FA68955
:10528000B7892C93A089B1898C9180648C93938D7C
:10529000848D981306C00288F389E02D80818F7D6C
:1052A00080830895CF93DF93EC01888D8823C9F024
:1052B000EA89FB89808185FD05C0A889B9898C911F
:1052C00086FD0FC00FB607FCF5CF808185FFF2CFBA
:1052D000A889B9898C9185FFEDCFCE010E94312933
:1052E000E7CFDF91CF910895CF92DF92FF920F9396
:1052F0001F93CF93DF931F92CDB7DEB76C0181E090
:10530000D60158968C9358975B969C915B975C96C8
:105310008C915C97981307C05096ED91FC91519732
:10532000808185FD2EC0F601038D10E00F5F1F4FB9
:105330000F731127F02EF601848DF81211C00FB6ED
:1053400007FCF9CFD6015096ED91FC9151978081E1
:1053500085FFF1CFC60169830E9431296981EBCFB6
:10536000838DE80FF11DE35AFF4F6083D6015B96F2
:105370000C935B975296ED91FC91539780818062DC
:105380000CC0D6015696ED91FC91579760835096CC
:10539000ED91FC91519780818064808381E090E061
:1053A0000F90DF91CF911F910F91FF90DF90CF90E1
:1053B0000895BF92CF92DF92EF92FF92CF93DF9347
:1053C000EC016A017B01B22EE889F98982E08083D1
:1053D000411581EE580761057105A1F060E079E0A3
:1053E0008DE390E0A70196010E94992F2150310989
:1053F000410951095695479537952795211580E123
:10540000380798F0E889F989108260E874E88EE13D
:1054100090E0A70196010E94992F2150310941097E
:1054200051095695479537952795EC85FD8530832D
:10543000EE85FF852083188EEC89FD89B082EA898C
:10544000FB89808180618083EA89FB898081886013
:105450008083EA89FB89808180688083EA89FB896F
:1054600080818F7D8083DF91CF91FF90EF90DF90DF
:10547000CF90BF9008951F920F920FB60F921124F4
:105480002F938F939F93EF93FF93E0917C02F09182
:105490007D028081E0918202F091830282FD12C040
:1054A0009081809185028F5F8F7320918602821791
:1054B00051F0E0918502F0E0E459FD4F958F809323
:1054C000850201C08081FF91EF919F918F912F9173
:1054D0000F900FBE0F901F9018951F920F920FB64E
:1054E0000F9211242F933F934F935F936F937F936A
:1054F0008F939F93AF93BF93EF93FF938CE692E0CC
:105500000E943129FF91EF91BF91AF919F918F91AF
:105510007F916F915F914F913F912F910F900FBEAF
:105520000F901F9018958CE692E00E94F62821E0DB
:10553000892B09F420E0822F089510926F021092B7
:105540006E0288EE93E0A0E0B0E08093700290934A
:105550007102A0937202B09373028EE192E0909375
:105560006D0280936C0285EC90E0909379028093B9
:10557000780284EC90E090937B0280937A0280EC36
:1055800090E090937D0280937C0281EC90E0909378
:105590007F0280937E0282EC90E090938102809360
:1055A000800286EC90E090938302809382021092B6
:1055B0008502109286021092870210928802089546
:1055C00008950E9421280E94E02A0E941B0DC3E238
:1055D000D9E20E943E072097E1F30E942329F9CFE8
:1055E000CF92DF92EF92FF920F931F93CF93DF93AF
:1055F0006C017A01EB01E60EF71E00E010E0CE151B
:10560000DF0561F06991D601ED91FC910190F08187
:10561000E02DC6010995080F191FF1CFC801DF91D0
:10562000CF911F910F91FF90EF90DF90CF90089551
:105630006115710581F0DB010D900020E9F7AD01E6
:1056400041505109461B570BDC01ED91FC91028042
:10565000F381E02D099480E090E00895EF92FF92AD
:105660000F931F93CF93DF938C01FB01C0E0D0E039
:1056700064917F018FEFE81AF80A662361F0D80180
:10568000ED91FC910190F081E02DC8010995C80FC2
:10569000D91FF701EDCFCE01DF91CF911F910F916F
:1056A000FF90EF9008950C94182BDC01ED91FC9184
:1056B0000190F081E02D09946AE272E00C94182BBD
:1056C0000F931F93CF93DF93EC010E942E2B8C013D
:1056D000CE010E945C2B800F911FDF91CF911F9113
:1056E0000F9108950F931F93CF93DF93EC010E94C6
:1056F000182B8C01CE010E945C2B800F911FDF9133
:10570000CF911F910F9108958F929F92AF92BF9268
:10571000CF92DF92EF92FF920F931F93CF93DF937D
:10572000CDB7DEB7A1970FB6F894DEBF0FBECDBFE1
:105730007C01C42EE52FCB01D22E19A221E02D151C
:1057400010F02AE0D22E8E010F5D1F4F8D2C912C70
:10575000A12CB12C6C2D7E2FA50194010E94992FB4
:105760008C2DD29E80191124015011098A3014F415
:10577000805D01C0895CF8018083211531054105F8
:10578000510521F0C22EE32FCA01E4CFB801C701B1
:105790000E94182BA1960FB6F894DEBF0FBECDBFA6
:1057A000DF91CF911F910F91FF90EF90DF90CF90FD
:1057B000BF90AF909F908F900895CF92DF92EF921D
:1057C000FF920F931F93CF93DF93EC016A017B014C
:1057D0002115310579F4E881F9810190F081E02DFE
:1057E000642FDF91CF911F910F91FF90EF90DF9089
:1057F000CF9009942A303105E9F477FF1AC06DE2A1
:105800000E94552B8C0144275527BA014C195D097C
:105810006E097F092AE0CE010E94842B800F911F20
:10582000DF91CF911F910F91FF90EF90DF90CF907C
:1058300008952AE0B701A601CE01DF91CF911F9113
:105840000F91FF90EF90DF90CF900C94842B9A01F2
:10585000AB01662757FD6095762F0C94DD2B0F93D7
:105860001F93CF93DF93EC019A01AB01662757FD9D
:105870006095762F0E94DD2B8C01CE010E945C2B5F
:10588000800F911FDF91CF911F910F9108952115E6
:10589000310541F4DC01ED91FC910190F081E02DA6
:1058A000642F09940C94842B0F931F93CF93DF9351
:1058B000EC019A01AB0160E070E00E94472C8C0182
:1058C000CE010E945C2B800F911FDF91CF911F9121
:1058D0000F9108950F931F93CF93DF93EC010E94D4
:1058E000472C8C01CE010E945C2B800F911FDF9111
:1058F000CF911F910F9108954F925F926F927F9277
:105900008F929F92AF92BF92CF92DF92EF92FF92CF
:105910000F931F93CF93DF93EC016A017B01B22EAB
:105920009A01AB01C701B6010E94952F882319F097
:105930006DE272E027C026013701E89477F82FEF77
:105940003FEF4FE75FE7C301B2010E94952F81113E
:105950000DC02FEF3FEF4FE75FE7C301B2010E9499
:10596000DF2D18161CF461E372E00CC02FEF3FEF3F
:105970004FE75FE4C701B6010E942E2F1816ACF462
:1059800065E372E0CE01DF91CF911F910F91FF90FF
:10599000EF90DF90CF90BF90AF909F908F907F90CF
:1059A0006F905F904F900C94182B2FEF3FEF4FE7C5
:1059B0005FECC701B6010E94DF2D87FDE1CF20E03B
:1059C00030E0A901C701B6010E94DF2D87FF0AC0A0
:1059D0006DE2CE010E94552B8C01F7FAF094F7F896
:1059E000F09402C000E010E0A12C60E070E080E0E4
:1059F0009FE3AB1441F020E030E040E251E40E942C
:105A0000E32DA394F6CF9B01AC01C701B6010E9420
:105A10007B2D6B017C010E94502E2B013C010E94CA
:105A20007C2E9B01AC01C701B6010E947A2D6B014F
:105A30007C012AE0B301A201CE010E94842B080F51
:105A4000191FBB2039F06CE371E0CE010E94182BC6
:105A5000080F191F7B2C772041F120E030E040E255
:105A600051E4C701B6010E94322F6B017C010E94F4
:105A70004B2E4B01AA2497FCA094BA2C2AE030E0CC
:105A8000B501A401CE010E94DD2B080F191FC5012D
:105A9000B4010E947E2E9B01AC01C701B6010E9499
:105AA0007A2D6B017C017A94D6CFC801DF91CF911A
:105AB0001F910F91FF90EF90DF90CF90BF90AF902C
:105AC0009F908F907F906F905F904F9008950F936D
:105AD0001F93CF93DF93EC010E947C2C8C01CE01AD
